{
	"contracts/Staking.sol": {
		"Staking": {
			"abi": [
				{
					"inputs": [
						{
							"internalType": "address",
							"name": "stakingToken",
							"type": "address"
						},
						{
							"internalType": "address",
							"name": "rewardToken",
							"type": "address"
						}
					],
					"stateMutability": "nonpayable",
					"type": "constructor"
				},
				{
					"anonymous": false,
					"inputs": [
						{
							"indexed": true,
							"internalType": "address",
							"name": "user",
							"type": "address"
						},
						{
							"indexed": true,
							"internalType": "uint256",
							"name": "amount",
							"type": "uint256"
						}
					],
					"name": "RewardsClaimed",
					"type": "event"
				},
				{
					"anonymous": false,
					"inputs": [
						{
							"indexed": true,
							"internalType": "address",
							"name": "user",
							"type": "address"
						},
						{
							"indexed": true,
							"internalType": "uint256",
							"name": "amount",
							"type": "uint256"
						}
					],
					"name": "Staked",
					"type": "event"
				},
				{
					"anonymous": false,
					"inputs": [
						{
							"indexed": true,
							"internalType": "address",
							"name": "user",
							"type": "address"
						},
						{
							"indexed": true,
							"internalType": "uint256",
							"name": "amount",
							"type": "uint256"
						}
					],
					"name": "Withdrawn",
					"type": "event"
				},
				{
					"inputs": [],
					"name": "REWARD_RATE",
					"outputs": [
						{
							"internalType": "uint256",
							"name": "",
							"type": "uint256"
						}
					],
					"stateMutability": "view",
					"type": "function"
				},
				{
					"inputs": [
						{
							"internalType": "address",
							"name": "account",
							"type": "address"
						}
					],
					"name": "earned",
					"outputs": [
						{
							"internalType": "uint256",
							"name": "",
							"type": "uint256"
						}
					],
					"stateMutability": "view",
					"type": "function"
				},
				{
					"inputs": [],
					"name": "getReward",
					"outputs": [],
					"stateMutability": "nonpayable",
					"type": "function"
				},
				{
					"inputs": [],
					"name": "lastUpdateTime",
					"outputs": [
						{
							"internalType": "uint256",
							"name": "",
							"type": "uint256"
						}
					],
					"stateMutability": "view",
					"type": "function"
				},
				{
					"inputs": [],
					"name": "rewardPerToken",
					"outputs": [
						{
							"internalType": "uint256",
							"name": "",
							"type": "uint256"
						}
					],
					"stateMutability": "view",
					"type": "function"
				},
				{
					"inputs": [],
					"name": "rewardPerTokenStored",
					"outputs": [
						{
							"internalType": "uint256",
							"name": "",
							"type": "uint256"
						}
					],
					"stateMutability": "view",
					"type": "function"
				},
				{
					"inputs": [
						{
							"internalType": "address",
							"name": "",
							"type": "address"
						}
					],
					"name": "rewards",
					"outputs": [
						{
							"internalType": "uint256",
							"name": "",
							"type": "uint256"
						}
					],
					"stateMutability": "view",
					"type": "function"
				},
				{
					"inputs": [],
					"name": "s_rewardToken",
					"outputs": [
						{
							"internalType": "contract IERC20",
							"name": "",
							"type": "address"
						}
					],
					"stateMutability": "view",
					"type": "function"
				},
				{
					"inputs": [],
					"name": "s_stakingToken",
					"outputs": [
						{
							"internalType": "contract IERC20",
							"name": "",
							"type": "address"
						}
					],
					"stateMutability": "view",
					"type": "function"
				},
				{
					"inputs": [
						{
							"internalType": "uint256",
							"name": "amount",
							"type": "uint256"
						}
					],
					"name": "stake",
					"outputs": [],
					"stateMutability": "nonpayable",
					"type": "function"
				},
				{
					"inputs": [
						{
							"internalType": "address",
							"name": "",
							"type": "address"
						}
					],
					"name": "stakedBalance",
					"outputs": [
						{
							"internalType": "uint256",
							"name": "",
							"type": "uint256"
						}
					],
					"stateMutability": "view",
					"type": "function"
				},
				{
					"inputs": [
						{
							"internalType": "address",
							"name": "",
							"type": "address"
						}
					],
					"name": "userRewardPerTokenPaid",
					"outputs": [
						{
							"internalType": "uint256",
							"name": "",
							"type": "uint256"
						}
					],
					"stateMutability": "view",
					"type": "function"
				},
				{
					"inputs": [
						{
							"internalType": "uint256",
							"name": "amount",
							"type": "uint256"
						}
					],
					"name": "withdraw",
					"outputs": [],
					"stateMutability": "nonpayable",
					"type": "function"
				}
			],
			"devdoc": {
				"kind": "dev",
				"methods": {},
				"version": 1
			},
			"evm": {
				"assembly": "    /* \"contracts/Staking.sol\":261:3233  contract Staking is ReentrancyGuard{... */\n  mstore(0x40, 0x80)\n    /* \"contracts/Staking.sol\":926:1084  constructor(address stakingToken,address rewardToken)... */\n  callvalue\n  dup1\n  iszero\n  tag_1\n  jumpi\n  0x00\n  dup1\n  revert\ntag_1:\n  pop\n  mload(0x40)\n  sub(codesize, bytecodeSize)\n  dup1\n  bytecodeSize\n  dup4\n  codecopy\n  dup2\n  dup2\n  add\n  0x40\n  mstore\n  dup2\n  add\n  swap1\n  tag_2\n  swap2\n  swap1\n  tag_3\n  jump\t// in\ntag_2:\n    /* \"@openzeppelin/contracts/security/ReentrancyGuard.sol\":1716:1717  1 */\n  0x01\n    /* \"@openzeppelin/contracts/security/ReentrancyGuard.sol\":1821:1828  _status */\n  0x00\n    /* \"@openzeppelin/contracts/security/ReentrancyGuard.sol\":1821:1843  _status = _NOT_ENTERED */\n  dup2\n  swap1\n  sstore\n  pop\n    /* \"contracts/Staking.sol\":1019:1031  stakingToken */\n  dup2\n    /* \"contracts/Staking.sol\":996:1010  s_stakingToken */\n  0x01\n  0x00\n    /* \"contracts/Staking.sol\":996:1032  s_stakingToken =IERC20(stakingToken) */\n  0x0100\n  exp\n  dup2\n  sload\n  dup2\n  0xffffffffffffffffffffffffffffffffffffffff\n  mul\n  not\n  and\n  swap1\n  dup4\n  0xffffffffffffffffffffffffffffffffffffffff\n  and\n  mul\n  or\n  swap1\n  sstore\n  pop\n    /* \"contracts/Staking.sol\":1064:1075  rewardToken */\n  dup1\n    /* \"contracts/Staking.sol\":1043:1056  s_rewardToken */\n  0x02\n  0x00\n    /* \"contracts/Staking.sol\":1043:1076  s_rewardToken=IERC20(rewardToken) */\n  0x0100\n  exp\n  dup2\n  sload\n  dup2\n  0xffffffffffffffffffffffffffffffffffffffff\n  mul\n  not\n  and\n  swap1\n  dup4\n  0xffffffffffffffffffffffffffffffffffffffff\n  and\n  mul\n  or\n  swap1\n  sstore\n  pop\n    /* \"contracts/Staking.sol\":926:1084  constructor(address stakingToken,address rewardToken)... */\n  pop\n  pop\n    /* \"contracts/Staking.sol\":261:3233  contract Staking is ReentrancyGuard{... */\n  jump(tag_8)\n    /* \"#utility.yul\":88:205   */\ntag_10:\n    /* \"#utility.yul\":197:198   */\n  0x00\n    /* \"#utility.yul\":194:195   */\n  dup1\n    /* \"#utility.yul\":187:199   */\n  revert\n    /* \"#utility.yul\":334:460   */\ntag_12:\n    /* \"#utility.yul\":371:378   */\n  0x00\n    /* \"#utility.yul\":411:453   */\n  0xffffffffffffffffffffffffffffffffffffffff\n    /* \"#utility.yul\":404:409   */\n  dup3\n    /* \"#utility.yul\":400:454   */\n  and\n    /* \"#utility.yul\":389:454   */\n  swap1\n  pop\n    /* \"#utility.yul\":334:460   */\n  swap2\n  swap1\n  pop\n  jump\t// out\n    /* \"#utility.yul\":466:562   */\ntag_13:\n    /* \"#utility.yul\":503:510   */\n  0x00\n    /* \"#utility.yul\":532:556   */\n  tag_22\n    /* \"#utility.yul\":550:555   */\n  dup3\n    /* \"#utility.yul\":532:556   */\n  tag_12\n  jump\t// in\ntag_22:\n    /* \"#utility.yul\":521:556   */\n  swap1\n  pop\n    /* \"#utility.yul\":466:562   */\n  swap2\n  swap1\n  pop\n  jump\t// out\n    /* \"#utility.yul\":568:690   */\ntag_14:\n    /* \"#utility.yul\":641:665   */\n  tag_24\n    /* \"#utility.yul\":659:664   */\n  dup2\n    /* \"#utility.yul\":641:665   */\n  tag_13\n  jump\t// in\ntag_24:\n    /* \"#utility.yul\":634:639   */\n  dup2\n    /* \"#utility.yul\":631:666   */\n  eq\n    /* \"#utility.yul\":621:684   */\n  tag_25\n  jumpi\n    /* \"#utility.yul\":680:681   */\n  0x00\n    /* \"#utility.yul\":677:678   */\n  dup1\n    /* \"#utility.yul\":670:682   */\n  revert\n    /* \"#utility.yul\":621:684   */\ntag_25:\n    /* \"#utility.yul\":568:690   */\n  pop\n  jump\t// out\n    /* \"#utility.yul\":696:839   */\ntag_15:\n    /* \"#utility.yul\":753:758   */\n  0x00\n    /* \"#utility.yul\":784:790   */\n  dup2\n    /* \"#utility.yul\":778:791   */\n  mload\n    /* \"#utility.yul\":769:791   */\n  swap1\n  pop\n    /* \"#utility.yul\":800:833   */\n  tag_27\n    /* \"#utility.yul\":827:832   */\n  dup2\n    /* \"#utility.yul\":800:833   */\n  tag_14\n  jump\t// in\ntag_27:\n    /* \"#utility.yul\":696:839   */\n  swap3\n  swap2\n  pop\n  pop\n  jump\t// out\n    /* \"#utility.yul\":845:1352   */\ntag_3:\n    /* \"#utility.yul\":924:930   */\n  0x00\n    /* \"#utility.yul\":932:938   */\n  dup1\n    /* \"#utility.yul\":981:983   */\n  0x40\n    /* \"#utility.yul\":969:978   */\n  dup4\n    /* \"#utility.yul\":960:967   */\n  dup6\n    /* \"#utility.yul\":956:979   */\n  sub\n    /* \"#utility.yul\":952:984   */\n  slt\n    /* \"#utility.yul\":949:1068   */\n  iszero\n  tag_29\n  jumpi\n    /* \"#utility.yul\":987:1066   */\n  tag_30\n  tag_10\n  jump\t// in\ntag_30:\n    /* \"#utility.yul\":949:1068   */\ntag_29:\n    /* \"#utility.yul\":1107:1108   */\n  0x00\n    /* \"#utility.yul\":1132:1196   */\n  tag_31\n    /* \"#utility.yul\":1188:1195   */\n  dup6\n    /* \"#utility.yul\":1179:1185   */\n  dup3\n    /* \"#utility.yul\":1168:1177   */\n  dup7\n    /* \"#utility.yul\":1164:1186   */\n  add\n    /* \"#utility.yul\":1132:1196   */\n  tag_15\n  jump\t// in\ntag_31:\n    /* \"#utility.yul\":1122:1196   */\n  swap3\n  pop\n    /* \"#utility.yul\":1078:1206   */\n  pop\n    /* \"#utility.yul\":1245:1247   */\n  0x20\n    /* \"#utility.yul\":1271:1335   */\n  tag_32\n    /* \"#utility.yul\":1327:1334   */\n  dup6\n    /* \"#utility.yul\":1318:1324   */\n  dup3\n    /* \"#utility.yul\":1307:1316   */\n  dup7\n    /* \"#utility.yul\":1303:1325   */\n  add\n    /* \"#utility.yul\":1271:1335   */\n  tag_15\n  jump\t// in\ntag_32:\n    /* \"#utility.yul\":1261:1335   */\n  swap2\n  pop\n    /* \"#utility.yul\":1216:1345   */\n  pop\n    /* \"#utility.yul\":845:1352   */\n  swap3\n  pop\n  swap3\n  swap1\n  pop\n  jump\t// out\n    /* \"contracts/Staking.sol\":261:3233  contract Staking is ReentrancyGuard{... */\ntag_8:\n  dataSize(sub_0)\n  dup1\n  dataOffset(sub_0)\n  0x00\n  codecopy\n  0x00\n  return\nstop\n\nsub_0: assembly {\n        /* \"contracts/Staking.sol\":261:3233  contract Staking is ReentrancyGuard{... */\n      mstore(0x40, 0x80)\n      callvalue\n      dup1\n      iszero\n      tag_1\n      jumpi\n      0x00\n      dup1\n      revert\n    tag_1:\n      pop\n      jumpi(tag_2, lt(calldatasize, 0x04))\n      shr(0xe0, calldataload(0x00))\n      dup1\n      0x6374cc00\n      gt\n      tag_16\n      jumpi\n      dup1\n      0xadca9b72\n      gt\n      tag_17\n      jumpi\n      dup1\n      0xadca9b72\n      eq\n      tag_12\n      jumpi\n      dup1\n      0xc8f33c91\n      eq\n      tag_13\n      jumpi\n      dup1\n      0xcd3daf9d\n      eq\n      tag_14\n      jumpi\n      dup1\n      0xdf136d65\n      eq\n      tag_15\n      jumpi\n      jump(tag_2)\n    tag_17:\n      dup1\n      0x6374cc00\n      eq\n      tag_9\n      jumpi\n      dup1\n      0x8b876347\n      eq\n      tag_10\n      jumpi\n      dup1\n      0xa694fc3a\n      eq\n      tag_11\n      jumpi\n      jump(tag_2)\n    tag_16:\n      dup1\n      0x8cc262\n      eq\n      tag_3\n      jumpi\n      dup1\n      0x0700037d\n      eq\n      tag_4\n      jumpi\n      dup1\n      0x2e1a7d4d\n      eq\n      tag_5\n      jumpi\n      dup1\n      0x3d18b912\n      eq\n      tag_6\n      jumpi\n      dup1\n      0x5997bb37\n      eq\n      tag_7\n      jumpi\n      dup1\n      0x60217267\n      eq\n      tag_8\n      jumpi\n    tag_2:\n      0x00\n      dup1\n      revert\n        /* \"contracts/Staking.sol\":1469:1658  function earned(address account)public view returns(uint){... */\n    tag_3:\n      tag_18\n      0x04\n      dup1\n      calldatasize\n      sub\n      dup2\n      add\n      swap1\n      tag_19\n      swap2\n      swap1\n      tag_20\n      jump\t// in\n    tag_19:\n      tag_21\n      jump\t// in\n    tag_18:\n      mload(0x40)\n      tag_22\n      swap2\n      swap1\n      tag_23\n      jump\t// in\n    tag_22:\n      mload(0x40)\n      dup1\n      swap2\n      sub\n      swap1\n      return\n        /* \"contracts/Staking.sol\":616:653  mapping(address=>uint) public rewards */\n    tag_4:\n      tag_24\n      0x04\n      dup1\n      calldatasize\n      sub\n      dup2\n      add\n      swap1\n      tag_25\n      swap2\n      swap1\n      tag_20\n      jump\t// in\n    tag_25:\n      tag_26\n      jump\t// in\n    tag_24:\n      mload(0x40)\n      tag_27\n      swap2\n      swap1\n      tag_23\n      jump\t// in\n    tag_27:\n      mload(0x40)\n      dup1\n      swap2\n      sub\n      swap1\n      return\n        /* \"contracts/Staking.sol\":2341:2851  function withdraw(uint amount) external nonReentrant updateReward(msg.sender)  {... */\n    tag_5:\n      tag_28\n      0x04\n      dup1\n      calldatasize\n      sub\n      dup2\n      add\n      swap1\n      tag_29\n      swap2\n      swap1\n      tag_30\n      jump\t// in\n    tag_29:\n      tag_31\n      jump\t// in\n    tag_28:\n      stop\n        /* \"contracts/Staking.sol\":2859:3224  function getReward() external nonReentrant updateReward(msg.sender){... */\n    tag_6:\n      tag_32\n      tag_33\n      jump\t// in\n    tag_32:\n      stop\n        /* \"contracts/Staking.sol\":411:448  uint public constant REWARD_RATE=1e18 */\n    tag_7:\n      tag_34\n      tag_35\n      jump\t// in\n    tag_34:\n      mload(0x40)\n      tag_36\n      swap2\n      swap1\n      tag_23\n      jump\t// in\n    tag_36:\n      mload(0x40)\n      dup1\n      swap2\n      sub\n      swap1\n      return\n        /* \"contracts/Staking.sol\":566:609  mapping(address=>uint) public stakedBalance */\n    tag_8:\n      tag_37\n      0x04\n      dup1\n      calldatasize\n      sub\n      dup2\n      add\n      swap1\n      tag_38\n      swap2\n      swap1\n      tag_20\n      jump\t// in\n    tag_38:\n      tag_39\n      jump\t// in\n    tag_37:\n      mload(0x40)\n      tag_40\n      swap2\n      swap1\n      tag_23\n      jump\t// in\n    tag_40:\n      mload(0x40)\n      dup1\n      swap2\n      sub\n      swap1\n      return\n        /* \"contracts/Staking.sol\":371:398  IERC20 public s_rewardToken */\n    tag_9:\n      tag_41\n      tag_42\n      jump\t// in\n    tag_41:\n      mload(0x40)\n      tag_43\n      swap2\n      swap1\n      tag_44\n      jump\t// in\n    tag_43:\n      mload(0x40)\n      dup1\n      swap2\n      sub\n      swap1\n      return\n        /* \"contracts/Staking.sol\":660:712  mapping(address=>uint) public userRewardPerTokenPaid */\n    tag_10:\n      tag_45\n      0x04\n      dup1\n      calldatasize\n      sub\n      dup2\n      add\n      swap1\n      tag_46\n      swap2\n      swap1\n      tag_20\n      jump\t// in\n    tag_46:\n      tag_47\n      jump\t// in\n    tag_45:\n      mload(0x40)\n      tag_48\n      swap2\n      swap1\n      tag_23\n      jump\t// in\n    tag_48:\n      mload(0x40)\n      dup1\n      swap2\n      sub\n      swap1\n      return\n        /* \"contracts/Staking.sol\":1933:2333  function stake(uint amount) external nonReentrant updateReward(msg.sender){... */\n    tag_11:\n      tag_49\n      0x04\n      dup1\n      calldatasize\n      sub\n      dup2\n      add\n      swap1\n      tag_50\n      swap2\n      swap1\n      tag_30\n      jump\t// in\n    tag_50:\n      tag_51\n      jump\t// in\n    tag_49:\n      stop\n        /* \"contracts/Staking.sol\":336:364  IERC20 public s_stakingToken */\n    tag_12:\n      tag_52\n      tag_53\n      jump\t// in\n    tag_52:\n      mload(0x40)\n      tag_54\n      swap2\n      swap1\n      tag_44\n      jump\t// in\n    tag_54:\n      mload(0x40)\n      dup1\n      swap2\n      sub\n      swap1\n      return\n        /* \"contracts/Staking.sol\":531:557  uint public lastUpdateTime */\n    tag_13:\n      tag_55\n      tag_56\n      jump\t// in\n    tag_55:\n      mload(0x40)\n      tag_57\n      swap2\n      swap1\n      tag_23\n      jump\t// in\n    tag_57:\n      mload(0x40)\n      dup1\n      swap2\n      sub\n      swap1\n      return\n        /* \"contracts/Staking.sol\":1092:1448  function rewardPerToken() public view returns(uint){... */\n    tag_14:\n      tag_58\n      tag_59\n      jump\t// in\n    tag_58:\n      mload(0x40)\n      tag_60\n      swap2\n      swap1\n      tag_23\n      jump\t// in\n    tag_60:\n      mload(0x40)\n      dup1\n      swap2\n      sub\n      swap1\n      return\n        /* \"contracts/Staking.sol\":492:524  uint public rewardPerTokenStored */\n    tag_15:\n      tag_61\n      tag_62\n      jump\t// in\n    tag_61:\n      mload(0x40)\n      tag_63\n      swap2\n      swap1\n      tag_23\n      jump\t// in\n    tag_63:\n      mload(0x40)\n      dup1\n      swap2\n      sub\n      swap1\n      return\n        /* \"contracts/Staking.sol\":1469:1658  function earned(address account)public view returns(uint){... */\n    tag_21:\n        /* \"contracts/Staking.sol\":1521:1525  uint */\n      0x00\n        /* \"contracts/Staking.sol\":1544:1649  (stakedBalance[account].mul(rewardPerToken().sub(userRewardPerTokenPaid[account]))).add(rewards[account]) */\n      tag_65\n        /* \"contracts/Staking.sol\":1632:1639  rewards */\n      0x07\n        /* \"contracts/Staking.sol\":1632:1648  rewards[account] */\n      0x00\n        /* \"contracts/Staking.sol\":1640:1647  account */\n      dup5\n        /* \"contracts/Staking.sol\":1632:1648  rewards[account] */\n      0xffffffffffffffffffffffffffffffffffffffff\n      and\n      0xffffffffffffffffffffffffffffffffffffffff\n      and\n      dup2\n      mstore\n      0x20\n      add\n      swap1\n      dup2\n      mstore\n      0x20\n      add\n      0x00\n      keccak256\n      sload\n        /* \"contracts/Staking.sol\":1545:1626  stakedBalance[account].mul(rewardPerToken().sub(userRewardPerTokenPaid[account])) */\n      tag_66\n        /* \"contracts/Staking.sol\":1572:1625  rewardPerToken().sub(userRewardPerTokenPaid[account]) */\n      tag_67\n        /* \"contracts/Staking.sol\":1593:1615  userRewardPerTokenPaid */\n      0x08\n        /* \"contracts/Staking.sol\":1593:1624  userRewardPerTokenPaid[account] */\n      0x00\n        /* \"contracts/Staking.sol\":1616:1623  account */\n      dup8\n        /* \"contracts/Staking.sol\":1593:1624  userRewardPerTokenPaid[account] */\n      0xffffffffffffffffffffffffffffffffffffffff\n      and\n      0xffffffffffffffffffffffffffffffffffffffff\n      and\n      dup2\n      mstore\n      0x20\n      add\n      swap1\n      dup2\n      mstore\n      0x20\n      add\n      0x00\n      keccak256\n      sload\n        /* \"contracts/Staking.sol\":1572:1588  rewardPerToken() */\n      tag_68\n        /* \"contracts/Staking.sol\":1572:1586  rewardPerToken */\n      tag_59\n        /* \"contracts/Staking.sol\":1572:1588  rewardPerToken() */\n      jump\t// in\n    tag_68:\n        /* \"contracts/Staking.sol\":1572:1592  rewardPerToken().sub */\n      tag_69\n      swap1\n        /* \"contracts/Staking.sol\":1572:1625  rewardPerToken().sub(userRewardPerTokenPaid[account]) */\n      swap2\n      swap1\n      0xffffffff\n      and\n      jump\t// in\n    tag_67:\n        /* \"contracts/Staking.sol\":1545:1558  stakedBalance */\n      0x06\n        /* \"contracts/Staking.sol\":1545:1567  stakedBalance[account] */\n      0x00\n        /* \"contracts/Staking.sol\":1559:1566  account */\n      dup8\n        /* \"contracts/Staking.sol\":1545:1567  stakedBalance[account] */\n      0xffffffffffffffffffffffffffffffffffffffff\n      and\n      0xffffffffffffffffffffffffffffffffffffffff\n      and\n      dup2\n      mstore\n      0x20\n      add\n      swap1\n      dup2\n      mstore\n      0x20\n      add\n      0x00\n      keccak256\n      sload\n        /* \"contracts/Staking.sol\":1545:1571  stakedBalance[account].mul */\n      tag_70\n      swap1\n        /* \"contracts/Staking.sol\":1545:1626  stakedBalance[account].mul(rewardPerToken().sub(userRewardPerTokenPaid[account])) */\n      swap2\n      swap1\n      0xffffffff\n      and\n      jump\t// in\n    tag_66:\n        /* \"contracts/Staking.sol\":1544:1631  (stakedBalance[account].mul(rewardPerToken().sub(userRewardPerTokenPaid[account]))).add */\n      tag_71\n      swap1\n        /* \"contracts/Staking.sol\":1544:1649  (stakedBalance[account].mul(rewardPerToken().sub(userRewardPerTokenPaid[account]))).add(rewards[account]) */\n      swap2\n      swap1\n      0xffffffff\n      and\n      jump\t// in\n    tag_65:\n        /* \"contracts/Staking.sol\":1537:1650  return((stakedBalance[account].mul(rewardPerToken().sub(userRewardPerTokenPaid[account]))).add(rewards[account])) */\n      swap1\n      pop\n        /* \"contracts/Staking.sol\":1469:1658  function earned(address account)public view returns(uint){... */\n      swap2\n      swap1\n      pop\n      jump\t// out\n        /* \"contracts/Staking.sol\":616:653  mapping(address=>uint) public rewards */\n    tag_26:\n      mstore(0x20, 0x07)\n      dup1\n      0x00\n      mstore\n      keccak256(0x00, 0x40)\n      0x00\n      swap2\n      pop\n      swap1\n      pop\n      sload\n      dup2\n      jump\t// out\n        /* \"contracts/Staking.sol\":2341:2851  function withdraw(uint amount) external nonReentrant updateReward(msg.sender)  {... */\n    tag_31:\n        /* \"@openzeppelin/contracts/security/ReentrancyGuard.sol\":2261:2282  _nonReentrantBefore() */\n      tag_73\n        /* \"@openzeppelin/contracts/security/ReentrancyGuard.sol\":2261:2280  _nonReentrantBefore */\n      tag_74\n        /* \"@openzeppelin/contracts/security/ReentrancyGuard.sol\":2261:2282  _nonReentrantBefore() */\n      jump\t// in\n    tag_73:\n        /* \"contracts/Staking.sol\":2407:2417  msg.sender */\n      caller\n        /* \"contracts/Staking.sol\":1738:1754  rewardPerToken() */\n      tag_76\n        /* \"contracts/Staking.sol\":1738:1752  rewardPerToken */\n      tag_59\n        /* \"contracts/Staking.sol\":1738:1754  rewardPerToken() */\n      jump\t// in\n    tag_76:\n        /* \"contracts/Staking.sol\":1715:1735  rewardPerTokenStored */\n      0x04\n        /* \"contracts/Staking.sol\":1715:1754  rewardPerTokenStored = rewardPerToken() */\n      dup2\n      swap1\n      sstore\n      pop\n        /* \"contracts/Staking.sol\":1782:1797  block.timestamp */\n      timestamp\n        /* \"contracts/Staking.sol\":1765:1779  lastUpdateTime */\n      0x05\n        /* \"contracts/Staking.sol\":1765:1797  lastUpdateTime = block.timestamp */\n      dup2\n      swap1\n      sstore\n      pop\n        /* \"contracts/Staking.sol\":1827:1842  earned(account) */\n      tag_77\n        /* \"contracts/Staking.sol\":1834:1841  account */\n      dup2\n        /* \"contracts/Staking.sol\":1827:1833  earned */\n      tag_21\n        /* \"contracts/Staking.sol\":1827:1842  earned(account) */\n      jump\t// in\n    tag_77:\n        /* \"contracts/Staking.sol\":1808:1815  rewards */\n      0x07\n        /* \"contracts/Staking.sol\":1808:1824  rewards[account] */\n      0x00\n        /* \"contracts/Staking.sol\":1816:1823  account */\n      dup4\n        /* \"contracts/Staking.sol\":1808:1824  rewards[account] */\n      0xffffffffffffffffffffffffffffffffffffffff\n      and\n      0xffffffffffffffffffffffffffffffffffffffff\n      and\n      dup2\n      mstore\n      0x20\n      add\n      swap1\n      dup2\n      mstore\n      0x20\n      add\n      0x00\n      keccak256\n        /* \"contracts/Staking.sol\":1808:1842  rewards[account] = earned(account) */\n      dup2\n      swap1\n      sstore\n      pop\n        /* \"contracts/Staking.sol\":1885:1905  rewardPerTokenStored */\n      sload(0x04)\n        /* \"contracts/Staking.sol\":1853:1875  userRewardPerTokenPaid */\n      0x08\n        /* \"contracts/Staking.sol\":1853:1884  userRewardPerTokenPaid[account] */\n      0x00\n        /* \"contracts/Staking.sol\":1876:1883  account */\n      dup4\n        /* \"contracts/Staking.sol\":1853:1884  userRewardPerTokenPaid[account] */\n      0xffffffffffffffffffffffffffffffffffffffff\n      and\n      0xffffffffffffffffffffffffffffffffffffffff\n      and\n      dup2\n      mstore\n      0x20\n      add\n      swap1\n      dup2\n      mstore\n      0x20\n      add\n      0x00\n      keccak256\n        /* \"contracts/Staking.sol\":1853:1905  userRewardPerTokenPaid[account]=rewardPerTokenStored */\n      dup2\n      swap1\n      sstore\n      pop\n        /* \"contracts/Staking.sol\":2442:2443  0 */\n      0x00\n        /* \"contracts/Staking.sol\":2435:2441  amount */\n      dup3\n        /* \"contracts/Staking.sol\":2435:2443  amount>0 */\n      gt\n        /* \"contracts/Staking.sol\":2427:2479  require(amount>0,\"Amount must be greater than zero\") */\n      tag_79\n      jumpi\n      mload(0x40)\n      0x08c379a000000000000000000000000000000000000000000000000000000000\n      dup2\n      mstore\n      0x04\n      add\n      tag_80\n      swap1\n      tag_81\n      jump\t// in\n    tag_80:\n      mload(0x40)\n      dup1\n      swap2\n      sub\n      swap1\n      revert\n    tag_79:\n        /* \"contracts/Staking.sol\":2521:2527  amount */\n      dup2\n        /* \"contracts/Staking.sol\":2494:2507  stakedBalance */\n      0x06\n        /* \"contracts/Staking.sol\":2494:2519  stakedBalance[msg.sender] */\n      0x00\n        /* \"contracts/Staking.sol\":2508:2518  msg.sender */\n      caller\n        /* \"contracts/Staking.sol\":2494:2519  stakedBalance[msg.sender] */\n      0xffffffffffffffffffffffffffffffffffffffff\n      and\n      0xffffffffffffffffffffffffffffffffffffffff\n      and\n      dup2\n      mstore\n      0x20\n      add\n      swap1\n      dup2\n      mstore\n      0x20\n      add\n      0x00\n      keccak256\n      sload\n        /* \"contracts/Staking.sol\":2494:2527  stakedBalance[msg.sender]>=amount */\n      lt\n      iszero\n        /* \"contracts/Staking.sol\":2486:2555  require(stakedBalance[msg.sender]>=amount,\"Staked amount not enough\") */\n      tag_82\n      jumpi\n      mload(0x40)\n      0x08c379a000000000000000000000000000000000000000000000000000000000\n      dup2\n      mstore\n      0x04\n      add\n      tag_83\n      swap1\n      tag_84\n      jump\t// in\n    tag_83:\n      mload(0x40)\n      dup1\n      swap2\n      sub\n      swap1\n      revert\n    tag_82:\n        /* \"contracts/Staking.sol\":2580:2609  totalStakedTokens.sub(amount) */\n      tag_85\n        /* \"contracts/Staking.sol\":2602:2608  amount */\n      dup3\n        /* \"contracts/Staking.sol\":2580:2597  totalStakedTokens */\n      sload(0x03)\n        /* \"contracts/Staking.sol\":2580:2601  totalStakedTokens.sub */\n      tag_69\n      swap1\n        /* \"contracts/Staking.sol\":2580:2609  totalStakedTokens.sub(amount) */\n      swap2\n      swap1\n      0xffffffff\n      and\n      jump\t// in\n    tag_85:\n        /* \"contracts/Staking.sol\":2562:2579  totalStakedTokens */\n      0x03\n        /* \"contracts/Staking.sol\":2562:2609  totalStakedTokens=totalStakedTokens.sub(amount) */\n      dup2\n      swap1\n      sstore\n      pop\n        /* \"contracts/Staking.sol\":2642:2679  stakedBalance[msg.sender].sub(amount) */\n      tag_86\n        /* \"contracts/Staking.sol\":2672:2678  amount */\n      dup3\n        /* \"contracts/Staking.sol\":2642:2655  stakedBalance */\n      0x06\n        /* \"contracts/Staking.sol\":2642:2667  stakedBalance[msg.sender] */\n      0x00\n        /* \"contracts/Staking.sol\":2656:2666  msg.sender */\n      caller\n        /* \"contracts/Staking.sol\":2642:2667  stakedBalance[msg.sender] */\n      0xffffffffffffffffffffffffffffffffffffffff\n      and\n      0xffffffffffffffffffffffffffffffffffffffff\n      and\n      dup2\n      mstore\n      0x20\n      add\n      swap1\n      dup2\n      mstore\n      0x20\n      add\n      0x00\n      keccak256\n      sload\n        /* \"contracts/Staking.sol\":2642:2671  stakedBalance[msg.sender].sub */\n      tag_69\n      swap1\n        /* \"contracts/Staking.sol\":2642:2679  stakedBalance[msg.sender].sub(amount) */\n      swap2\n      swap1\n      0xffffffff\n      and\n      jump\t// in\n    tag_86:\n        /* \"contracts/Staking.sol\":2616:2629  stakedBalance */\n      0x06\n        /* \"contracts/Staking.sol\":2616:2641  stakedBalance[msg.sender] */\n      0x00\n        /* \"contracts/Staking.sol\":2630:2640  msg.sender */\n      caller\n        /* \"contracts/Staking.sol\":2616:2641  stakedBalance[msg.sender] */\n      0xffffffffffffffffffffffffffffffffffffffff\n      and\n      0xffffffffffffffffffffffffffffffffffffffff\n      and\n      dup2\n      mstore\n      0x20\n      add\n      swap1\n      dup2\n      mstore\n      0x20\n      add\n      0x00\n      keccak256\n        /* \"contracts/Staking.sol\":2616:2679  stakedBalance[msg.sender]=stakedBalance[msg.sender].sub(amount) */\n      dup2\n      swap1\n      sstore\n      pop\n        /* \"contracts/Staking.sol\":2713:2719  amount */\n      dup2\n        /* \"contracts/Staking.sol\":2701:2711  msg.sender */\n      caller\n        /* \"contracts/Staking.sol\":2691:2720  Withdrawn(msg.sender, amount) */\n      0xffffffffffffffffffffffffffffffffffffffff\n      and\n      0x7084f5476618d8e60b11ef0d7d3f06914655adb8793e28ff7f018d4c76d505d5\n      mload(0x40)\n      mload(0x40)\n      dup1\n      swap2\n      sub\n      swap1\n      log3\n        /* \"contracts/Staking.sol\":2747:2759  bool success */\n      0x00\n        /* \"contracts/Staking.sol\":2762:2776  s_stakingToken */\n      0x01\n      0x00\n      swap1\n      sload\n      swap1\n      0x0100\n      exp\n      swap1\n      div\n      0xffffffffffffffffffffffffffffffffffffffff\n      and\n        /* \"contracts/Staking.sol\":2762:2785  s_stakingToken.transfer */\n      0xffffffffffffffffffffffffffffffffffffffff\n      and\n      0xa9059cbb\n        /* \"contracts/Staking.sol\":2786:2796  msg.sender */\n      caller\n        /* \"contracts/Staking.sol\":2797:2803  amount */\n      dup6\n        /* \"contracts/Staking.sol\":2762:2804  s_stakingToken.transfer(msg.sender,amount) */\n      mload(0x40)\n      dup4\n      0xffffffff\n      and\n      0xe0\n      shl\n      dup2\n      mstore\n      0x04\n      add\n      tag_87\n      swap3\n      swap2\n      swap1\n      tag_88\n      jump\t// in\n    tag_87:\n      0x20\n      mload(0x40)\n      dup1\n      dup4\n      sub\n      dup2\n      0x00\n      dup8\n      gas\n      call\n      iszero\n      dup1\n      iszero\n      tag_90\n      jumpi\n      returndatasize\n      0x00\n      dup1\n      returndatacopy\n      revert(0x00, returndatasize)\n    tag_90:\n      pop\n      pop\n      pop\n      pop\n      mload(0x40)\n      returndatasize\n      not(0x1f)\n      0x1f\n      dup3\n      add\n      and\n      dup3\n      add\n      dup1\n      0x40\n      mstore\n      pop\n      dup2\n      add\n      swap1\n      tag_91\n      swap2\n      swap1\n      tag_92\n      jump\t// in\n    tag_91:\n        /* \"contracts/Staking.sol\":2747:2804  bool success = s_stakingToken.transfer(msg.sender,amount) */\n      swap1\n      pop\n        /* \"contracts/Staking.sol\":2819:2826  success */\n      dup1\n        /* \"contracts/Staking.sol\":2811:2845  require(success,\"Transfer Failed\") */\n      tag_93\n      jumpi\n      mload(0x40)\n      0x08c379a000000000000000000000000000000000000000000000000000000000\n      dup2\n      mstore\n      0x04\n      add\n      tag_94\n      swap1\n      tag_95\n      jump\t// in\n    tag_94:\n      mload(0x40)\n      dup1\n      swap2\n      sub\n      swap1\n      revert\n    tag_93:\n        /* \"contracts/Staking.sol\":2420:2851  {... */\n      pop\n        /* \"@openzeppelin/contracts/security/ReentrancyGuard.sol\":2292:2293  _ */\n      pop\n        /* \"@openzeppelin/contracts/security/ReentrancyGuard.sol\":2303:2323  _nonReentrantAfter() */\n      tag_96\n        /* \"@openzeppelin/contracts/security/ReentrancyGuard.sol\":2303:2321  _nonReentrantAfter */\n      tag_97\n        /* \"@openzeppelin/contracts/security/ReentrancyGuard.sol\":2303:2323  _nonReentrantAfter() */\n      jump\t// in\n    tag_96:\n        /* \"contracts/Staking.sol\":2341:2851  function withdraw(uint amount) external nonReentrant updateReward(msg.sender)  {... */\n      pop\n      jump\t// out\n        /* \"contracts/Staking.sol\":2859:3224  function getReward() external nonReentrant updateReward(msg.sender){... */\n    tag_33:\n        /* \"@openzeppelin/contracts/security/ReentrancyGuard.sol\":2261:2282  _nonReentrantBefore() */\n      tag_99\n        /* \"@openzeppelin/contracts/security/ReentrancyGuard.sol\":2261:2280  _nonReentrantBefore */\n      tag_74\n        /* \"@openzeppelin/contracts/security/ReentrancyGuard.sol\":2261:2282  _nonReentrantBefore() */\n      jump\t// in\n    tag_99:\n        /* \"contracts/Staking.sol\":2915:2925  msg.sender */\n      caller\n        /* \"contracts/Staking.sol\":1738:1754  rewardPerToken() */\n      tag_101\n        /* \"contracts/Staking.sol\":1738:1752  rewardPerToken */\n      tag_59\n        /* \"contracts/Staking.sol\":1738:1754  rewardPerToken() */\n      jump\t// in\n    tag_101:\n        /* \"contracts/Staking.sol\":1715:1735  rewardPerTokenStored */\n      0x04\n        /* \"contracts/Staking.sol\":1715:1754  rewardPerTokenStored = rewardPerToken() */\n      dup2\n      swap1\n      sstore\n      pop\n        /* \"contracts/Staking.sol\":1782:1797  block.timestamp */\n      timestamp\n        /* \"contracts/Staking.sol\":1765:1779  lastUpdateTime */\n      0x05\n        /* \"contracts/Staking.sol\":1765:1797  lastUpdateTime = block.timestamp */\n      dup2\n      swap1\n      sstore\n      pop\n        /* \"contracts/Staking.sol\":1827:1842  earned(account) */\n      tag_102\n        /* \"contracts/Staking.sol\":1834:1841  account */\n      dup2\n        /* \"contracts/Staking.sol\":1827:1833  earned */\n      tag_21\n        /* \"contracts/Staking.sol\":1827:1842  earned(account) */\n      jump\t// in\n    tag_102:\n        /* \"contracts/Staking.sol\":1808:1815  rewards */\n      0x07\n        /* \"contracts/Staking.sol\":1808:1824  rewards[account] */\n      0x00\n        /* \"contracts/Staking.sol\":1816:1823  account */\n      dup4\n        /* \"contracts/Staking.sol\":1808:1824  rewards[account] */\n      0xffffffffffffffffffffffffffffffffffffffff\n      and\n      0xffffffffffffffffffffffffffffffffffffffff\n      and\n      dup2\n      mstore\n      0x20\n      add\n      swap1\n      dup2\n      mstore\n      0x20\n      add\n      0x00\n      keccak256\n        /* \"contracts/Staking.sol\":1808:1842  rewards[account] = earned(account) */\n      dup2\n      swap1\n      sstore\n      pop\n        /* \"contracts/Staking.sol\":1885:1905  rewardPerTokenStored */\n      sload(0x04)\n        /* \"contracts/Staking.sol\":1853:1875  userRewardPerTokenPaid */\n      0x08\n        /* \"contracts/Staking.sol\":1853:1884  userRewardPerTokenPaid[account] */\n      0x00\n        /* \"contracts/Staking.sol\":1876:1883  account */\n      dup4\n        /* \"contracts/Staking.sol\":1853:1884  userRewardPerTokenPaid[account] */\n      0xffffffffffffffffffffffffffffffffffffffff\n      and\n      0xffffffffffffffffffffffffffffffffffffffff\n      and\n      dup2\n      mstore\n      0x20\n      add\n      swap1\n      dup2\n      mstore\n      0x20\n      add\n      0x00\n      keccak256\n        /* \"contracts/Staking.sol\":1853:1905  userRewardPerTokenPaid[account]=rewardPerTokenStored */\n      dup2\n      swap1\n      sstore\n      pop\n        /* \"contracts/Staking.sol\":2937:2948  uint reward */\n      0x00\n        /* \"contracts/Staking.sol\":2951:2958  rewards */\n      0x07\n        /* \"contracts/Staking.sol\":2951:2970  rewards[msg.sender] */\n      0x00\n        /* \"contracts/Staking.sol\":2959:2969  msg.sender */\n      caller\n        /* \"contracts/Staking.sol\":2951:2970  rewards[msg.sender] */\n      0xffffffffffffffffffffffffffffffffffffffff\n      and\n      0xffffffffffffffffffffffffffffffffffffffff\n      and\n      dup2\n      mstore\n      0x20\n      add\n      swap1\n      dup2\n      mstore\n      0x20\n      add\n      0x00\n      keccak256\n      sload\n        /* \"contracts/Staking.sol\":2937:2970  uint reward = rewards[msg.sender] */\n      swap1\n      pop\n        /* \"contracts/Staking.sol\":2996:2997  0 */\n      0x00\n        /* \"contracts/Staking.sol\":2989:2995  reward */\n      dup2\n        /* \"contracts/Staking.sol\":2989:2997  reward>0 */\n      gt\n        /* \"contracts/Staking.sol\":2981:3020  require(reward>0,\"No Rewards to Claim\") */\n      tag_104\n      jumpi\n      mload(0x40)\n      0x08c379a000000000000000000000000000000000000000000000000000000000\n      dup2\n      mstore\n      0x04\n      add\n      tag_105\n      swap1\n      tag_106\n      jump\t// in\n    tag_105:\n      mload(0x40)\n      dup1\n      swap2\n      sub\n      swap1\n      revert\n    tag_104:\n        /* \"contracts/Staking.sol\":3051:3052  0 */\n      0x00\n        /* \"contracts/Staking.sol\":3031:3038  rewards */\n      0x07\n        /* \"contracts/Staking.sol\":3031:3050  rewards[msg.sender] */\n      0x00\n        /* \"contracts/Staking.sol\":3039:3049  msg.sender */\n      caller\n        /* \"contracts/Staking.sol\":3031:3050  rewards[msg.sender] */\n      0xffffffffffffffffffffffffffffffffffffffff\n      and\n      0xffffffffffffffffffffffffffffffffffffffff\n      and\n      dup2\n      mstore\n      0x20\n      add\n      swap1\n      dup2\n      mstore\n      0x20\n      add\n      0x00\n      keccak256\n        /* \"contracts/Staking.sol\":3031:3052  rewards[msg.sender]=0 */\n      dup2\n      swap1\n      sstore\n      pop\n        /* \"contracts/Staking.sol\":3094:3100  reward */\n      dup1\n        /* \"contracts/Staking.sol\":3083:3093  msg.sender */\n      caller\n        /* \"contracts/Staking.sol\":3068:3101  RewardsClaimed(msg.sender,reward) */\n      0xffffffffffffffffffffffffffffffffffffffff\n      and\n      0xfc30cddea38e2bf4d6ea7d3f9ed3b6ad7f176419f4963bd81318067a4aee73fe\n      mload(0x40)\n      mload(0x40)\n      dup1\n      swap2\n      sub\n      swap1\n      log3\n        /* \"contracts/Staking.sol\":3114:3126  bool success */\n      0x00\n        /* \"contracts/Staking.sol\":3129:3142  s_rewardToken */\n      0x02\n      0x00\n      swap1\n      sload\n      swap1\n      0x0100\n      exp\n      swap1\n      div\n      0xffffffffffffffffffffffffffffffffffffffff\n      and\n        /* \"contracts/Staking.sol\":3129:3151  s_rewardToken.transfer */\n      0xffffffffffffffffffffffffffffffffffffffff\n      and\n      0xa9059cbb\n        /* \"contracts/Staking.sol\":3152:3162  msg.sender */\n      caller\n        /* \"contracts/Staking.sol\":3164:3170  reward */\n      dup5\n        /* \"contracts/Staking.sol\":3129:3171  s_rewardToken.transfer(msg.sender, reward) */\n      mload(0x40)\n      dup4\n      0xffffffff\n      and\n      0xe0\n      shl\n      dup2\n      mstore\n      0x04\n      add\n      tag_107\n      swap3\n      swap2\n      swap1\n      tag_88\n      jump\t// in\n    tag_107:\n      0x20\n      mload(0x40)\n      dup1\n      dup4\n      sub\n      dup2\n      0x00\n      dup8\n      gas\n      call\n      iszero\n      dup1\n      iszero\n      tag_109\n      jumpi\n      returndatasize\n      0x00\n      dup1\n      returndatacopy\n      revert(0x00, returndatasize)\n    tag_109:\n      pop\n      pop\n      pop\n      pop\n      mload(0x40)\n      returndatasize\n      not(0x1f)\n      0x1f\n      dup3\n      add\n      and\n      dup3\n      add\n      dup1\n      0x40\n      mstore\n      pop\n      dup2\n      add\n      swap1\n      tag_110\n      swap2\n      swap1\n      tag_92\n      jump\t// in\n    tag_110:\n        /* \"contracts/Staking.sol\":3114:3171  bool success = s_rewardToken.transfer(msg.sender, reward) */\n      swap1\n      pop\n        /* \"contracts/Staking.sol\":3190:3197  success */\n      dup1\n        /* \"contracts/Staking.sol\":3182:3216  require(success,\"Transfer Failed\") */\n      tag_111\n      jumpi\n      mload(0x40)\n      0x08c379a000000000000000000000000000000000000000000000000000000000\n      dup2\n      mstore\n      0x04\n      add\n      tag_112\n      swap1\n      tag_95\n      jump\t// in\n    tag_112:\n      mload(0x40)\n      dup1\n      swap2\n      sub\n      swap1\n      revert\n    tag_111:\n        /* \"contracts/Staking.sol\":2926:3224  {... */\n      pop\n      pop\n        /* \"@openzeppelin/contracts/security/ReentrancyGuard.sol\":2292:2293  _ */\n      pop\n        /* \"@openzeppelin/contracts/security/ReentrancyGuard.sol\":2303:2323  _nonReentrantAfter() */\n      tag_113\n        /* \"@openzeppelin/contracts/security/ReentrancyGuard.sol\":2303:2321  _nonReentrantAfter */\n      tag_97\n        /* \"@openzeppelin/contracts/security/ReentrancyGuard.sol\":2303:2323  _nonReentrantAfter() */\n      jump\t// in\n    tag_113:\n        /* \"contracts/Staking.sol\":2859:3224  function getReward() external nonReentrant updateReward(msg.sender){... */\n      jump\t// out\n        /* \"contracts/Staking.sol\":411:448  uint public constant REWARD_RATE=1e18 */\n    tag_35:\n        /* \"contracts/Staking.sol\":444:448  1e18 */\n      0x0de0b6b3a7640000\n        /* \"contracts/Staking.sol\":411:448  uint public constant REWARD_RATE=1e18 */\n      dup2\n      jump\t// out\n        /* \"contracts/Staking.sol\":566:609  mapping(address=>uint) public stakedBalance */\n    tag_39:\n      mstore(0x20, 0x06)\n      dup1\n      0x00\n      mstore\n      keccak256(0x00, 0x40)\n      0x00\n      swap2\n      pop\n      swap1\n      pop\n      sload\n      dup2\n      jump\t// out\n        /* \"contracts/Staking.sol\":371:398  IERC20 public s_rewardToken */\n    tag_42:\n      0x02\n      0x00\n      swap1\n      sload\n      swap1\n      0x0100\n      exp\n      swap1\n      div\n      0xffffffffffffffffffffffffffffffffffffffff\n      and\n      dup2\n      jump\t// out\n        /* \"contracts/Staking.sol\":660:712  mapping(address=>uint) public userRewardPerTokenPaid */\n    tag_47:\n      mstore(0x20, 0x08)\n      dup1\n      0x00\n      mstore\n      keccak256(0x00, 0x40)\n      0x00\n      swap2\n      pop\n      swap1\n      pop\n      sload\n      dup2\n      jump\t// out\n        /* \"contracts/Staking.sol\":1933:2333  function stake(uint amount) external nonReentrant updateReward(msg.sender){... */\n    tag_51:\n        /* \"@openzeppelin/contracts/security/ReentrancyGuard.sol\":2261:2282  _nonReentrantBefore() */\n      tag_115\n        /* \"@openzeppelin/contracts/security/ReentrancyGuard.sol\":2261:2280  _nonReentrantBefore */\n      tag_74\n        /* \"@openzeppelin/contracts/security/ReentrancyGuard.sol\":2261:2282  _nonReentrantBefore() */\n      jump\t// in\n    tag_115:\n        /* \"contracts/Staking.sol\":1996:2006  msg.sender */\n      caller\n        /* \"contracts/Staking.sol\":1738:1754  rewardPerToken() */\n      tag_117\n        /* \"contracts/Staking.sol\":1738:1752  rewardPerToken */\n      tag_59\n        /* \"contracts/Staking.sol\":1738:1754  rewardPerToken() */\n      jump\t// in\n    tag_117:\n        /* \"contracts/Staking.sol\":1715:1735  rewardPerTokenStored */\n      0x04\n        /* \"contracts/Staking.sol\":1715:1754  rewardPerTokenStored = rewardPerToken() */\n      dup2\n      swap1\n      sstore\n      pop\n        /* \"contracts/Staking.sol\":1782:1797  block.timestamp */\n      timestamp\n        /* \"contracts/Staking.sol\":1765:1779  lastUpdateTime */\n      0x05\n        /* \"contracts/Staking.sol\":1765:1797  lastUpdateTime = block.timestamp */\n      dup2\n      swap1\n      sstore\n      pop\n        /* \"contracts/Staking.sol\":1827:1842  earned(account) */\n      tag_118\n        /* \"contracts/Staking.sol\":1834:1841  account */\n      dup2\n        /* \"contracts/Staking.sol\":1827:1833  earned */\n      tag_21\n        /* \"contracts/Staking.sol\":1827:1842  earned(account) */\n      jump\t// in\n    tag_118:\n        /* \"contracts/Staking.sol\":1808:1815  rewards */\n      0x07\n        /* \"contracts/Staking.sol\":1808:1824  rewards[account] */\n      0x00\n        /* \"contracts/Staking.sol\":1816:1823  account */\n      dup4\n        /* \"contracts/Staking.sol\":1808:1824  rewards[account] */\n      0xffffffffffffffffffffffffffffffffffffffff\n      and\n      0xffffffffffffffffffffffffffffffffffffffff\n      and\n      dup2\n      mstore\n      0x20\n      add\n      swap1\n      dup2\n      mstore\n      0x20\n      add\n      0x00\n      keccak256\n        /* \"contracts/Staking.sol\":1808:1842  rewards[account] = earned(account) */\n      dup2\n      swap1\n      sstore\n      pop\n        /* \"contracts/Staking.sol\":1885:1905  rewardPerTokenStored */\n      sload(0x04)\n        /* \"contracts/Staking.sol\":1853:1875  userRewardPerTokenPaid */\n      0x08\n        /* \"contracts/Staking.sol\":1853:1884  userRewardPerTokenPaid[account] */\n      0x00\n        /* \"contracts/Staking.sol\":1876:1883  account */\n      dup4\n        /* \"contracts/Staking.sol\":1853:1884  userRewardPerTokenPaid[account] */\n      0xffffffffffffffffffffffffffffffffffffffff\n      and\n      0xffffffffffffffffffffffffffffffffffffffff\n      and\n      dup2\n      mstore\n      0x20\n      add\n      swap1\n      dup2\n      mstore\n      0x20\n      add\n      0x00\n      keccak256\n        /* \"contracts/Staking.sol\":1853:1905  userRewardPerTokenPaid[account]=rewardPerTokenStored */\n      dup2\n      swap1\n      sstore\n      pop\n        /* \"contracts/Staking.sol\":2033:2034  0 */\n      0x00\n        /* \"contracts/Staking.sol\":2026:2032  amount */\n      dup3\n        /* \"contracts/Staking.sol\":2026:2034  amount>0 */\n      gt\n        /* \"contracts/Staking.sol\":2018:2070  require(amount>0,\"Amount must be greater than zero\") */\n      tag_120\n      jumpi\n      mload(0x40)\n      0x08c379a000000000000000000000000000000000000000000000000000000000\n      dup2\n      mstore\n      0x04\n      add\n      tag_121\n      swap1\n      tag_81\n      jump\t// in\n    tag_121:\n      mload(0x40)\n      dup1\n      swap2\n      sub\n      swap1\n      revert\n    tag_120:\n        /* \"contracts/Staking.sol\":2100:2106  amount */\n      dup2\n        /* \"contracts/Staking.sol\":2081:2098  totalStakedTokens */\n      0x03\n      0x00\n        /* \"contracts/Staking.sol\":2081:2106  totalStakedTokens+=amount */\n      dup3\n      dup3\n      sload\n      tag_122\n      swap2\n      swap1\n      tag_123\n      jump\t// in\n    tag_122:\n      swap3\n      pop\n      pop\n      dup2\n      swap1\n      sstore\n      pop\n        /* \"contracts/Staking.sol\":2144:2150  amount */\n      dup2\n        /* \"contracts/Staking.sol\":2117:2130  stakedBalance */\n      0x06\n        /* \"contracts/Staking.sol\":2117:2142  stakedBalance[msg.sender] */\n      0x00\n        /* \"contracts/Staking.sol\":2131:2141  msg.sender */\n      caller\n        /* \"contracts/Staking.sol\":2117:2142  stakedBalance[msg.sender] */\n      0xffffffffffffffffffffffffffffffffffffffff\n      and\n      0xffffffffffffffffffffffffffffffffffffffff\n      and\n      dup2\n      mstore\n      0x20\n      add\n      swap1\n      dup2\n      mstore\n      0x20\n      add\n      0x00\n      keccak256\n      0x00\n        /* \"contracts/Staking.sol\":2117:2150  stakedBalance[msg.sender]+=amount */\n      dup3\n      dup3\n      sload\n      tag_124\n      swap2\n      swap1\n      tag_123\n      jump\t// in\n    tag_124:\n      swap3\n      pop\n      pop\n      dup2\n      swap1\n      sstore\n      pop\n        /* \"contracts/Staking.sol\":2184:2190  amount */\n      dup2\n        /* \"contracts/Staking.sol\":2173:2183  msg.sender */\n      caller\n        /* \"contracts/Staking.sol\":2166:2191  Staked(msg.sender,amount) */\n      0xffffffffffffffffffffffffffffffffffffffff\n      and\n      0x9e71bc8eea02a63969f509818f2dafb9254532904319f9dbda79b67bd34a5f3d\n      mload(0x40)\n      mload(0x40)\n      dup1\n      swap2\n      sub\n      swap1\n      log3\n        /* \"contracts/Staking.sol\":2204:2216  bool success */\n      0x00\n        /* \"contracts/Staking.sol\":2219:2233  s_stakingToken */\n      0x01\n      0x00\n      swap1\n      sload\n      swap1\n      0x0100\n      exp\n      swap1\n      div\n      0xffffffffffffffffffffffffffffffffffffffff\n      and\n        /* \"contracts/Staking.sol\":2219:2246  s_stakingToken.transferFrom */\n      0xffffffffffffffffffffffffffffffffffffffff\n      and\n      0x23b872dd\n        /* \"contracts/Staking.sol\":2247:2257  msg.sender */\n      caller\n        /* \"contracts/Staking.sol\":2267:2271  this */\n      address\n        /* \"contracts/Staking.sol\":2273:2279  amount */\n      dup7\n        /* \"contracts/Staking.sol\":2219:2280  s_stakingToken.transferFrom(msg.sender, address(this),amount) */\n      mload(0x40)\n      dup5\n      0xffffffff\n      and\n      0xe0\n      shl\n      dup2\n      mstore\n      0x04\n      add\n      tag_125\n      swap4\n      swap3\n      swap2\n      swap1\n      tag_126\n      jump\t// in\n    tag_125:\n      0x20\n      mload(0x40)\n      dup1\n      dup4\n      sub\n      dup2\n      0x00\n      dup8\n      gas\n      call\n      iszero\n      dup1\n      iszero\n      tag_128\n      jumpi\n      returndatasize\n      0x00\n      dup1\n      returndatacopy\n      revert(0x00, returndatasize)\n    tag_128:\n      pop\n      pop\n      pop\n      pop\n      mload(0x40)\n      returndatasize\n      not(0x1f)\n      0x1f\n      dup3\n      add\n      and\n      dup3\n      add\n      dup1\n      0x40\n      mstore\n      pop\n      dup2\n      add\n      swap1\n      tag_129\n      swap2\n      swap1\n      tag_92\n      jump\t// in\n    tag_129:\n        /* \"contracts/Staking.sol\":2204:2280  bool success = s_stakingToken.transferFrom(msg.sender, address(this),amount) */\n      swap1\n      pop\n        /* \"contracts/Staking.sol\":2299:2306  success */\n      dup1\n        /* \"contracts/Staking.sol\":2291:2325  require(success,\"Transfer Failed\") */\n      tag_130\n      jumpi\n      mload(0x40)\n      0x08c379a000000000000000000000000000000000000000000000000000000000\n      dup2\n      mstore\n      0x04\n      add\n      tag_131\n      swap1\n      tag_95\n      jump\t// in\n    tag_131:\n      mload(0x40)\n      dup1\n      swap2\n      sub\n      swap1\n      revert\n    tag_130:\n        /* \"contracts/Staking.sol\":2007:2333  {... */\n      pop\n        /* \"@openzeppelin/contracts/security/ReentrancyGuard.sol\":2292:2293  _ */\n      pop\n        /* \"@openzeppelin/contracts/security/ReentrancyGuard.sol\":2303:2323  _nonReentrantAfter() */\n      tag_132\n        /* \"@openzeppelin/contracts/security/ReentrancyGuard.sol\":2303:2321  _nonReentrantAfter */\n      tag_97\n        /* \"@openzeppelin/contracts/security/ReentrancyGuard.sol\":2303:2323  _nonReentrantAfter() */\n      jump\t// in\n    tag_132:\n        /* \"contracts/Staking.sol\":1933:2333  function stake(uint amount) external nonReentrant updateReward(msg.sender){... */\n      pop\n      jump\t// out\n        /* \"contracts/Staking.sol\":336:364  IERC20 public s_stakingToken */\n    tag_53:\n      0x01\n      0x00\n      swap1\n      sload\n      swap1\n      0x0100\n      exp\n      swap1\n      div\n      0xffffffffffffffffffffffffffffffffffffffff\n      and\n      dup2\n      jump\t// out\n        /* \"contracts/Staking.sol\":531:557  uint public lastUpdateTime */\n    tag_56:\n      sload(0x05)\n      dup2\n      jump\t// out\n        /* \"contracts/Staking.sol\":1092:1448  function rewardPerToken() public view returns(uint){... */\n    tag_59:\n        /* \"contracts/Staking.sol\":1138:1142  uint */\n      0x00\n        /* \"contracts/Staking.sol\":1176:1177  0 */\n      dup1\n        /* \"contracts/Staking.sol\":1157:1174  totalStakedTokens */\n      sload(0x03)\n        /* \"contracts/Staking.sol\":1157:1177  totalStakedTokens==0 */\n      sub\n        /* \"contracts/Staking.sol\":1154:1242  if(totalStakedTokens==0)... */\n      tag_134\n      jumpi\n        /* \"contracts/Staking.sol\":1210:1230  rewardPerTokenStored */\n      sload(0x04)\n        /* \"contracts/Staking.sol\":1203:1230  return rewardPerTokenStored */\n      swap1\n      pop\n      jump(tag_133)\n        /* \"contracts/Staking.sol\":1154:1242  if(totalStakedTokens==0)... */\n    tag_134:\n        /* \"contracts/Staking.sol\":1252:1266  uint totalTime */\n      0x00\n        /* \"contracts/Staking.sol\":1285:1299  lastUpdateTime */\n      sload(0x05)\n        /* \"contracts/Staking.sol\":1269:1284  block.timestamp */\n      timestamp\n        /* \"contracts/Staking.sol\":1269:1299  block.timestamp-lastUpdateTime */\n      tag_135\n      swap2\n      swap1\n      tag_136\n      jump\t// in\n    tag_135:\n        /* \"contracts/Staking.sol\":1252:1299  uint totalTime = block.timestamp-lastUpdateTime */\n      swap1\n      pop\n        /* \"contracts/Staking.sol\":1310:1327  uint totalRewards */\n      0x00\n        /* \"contracts/Staking.sol\":1342:1351  totalTime */\n      dup2\n        /* \"contracts/Staking.sol\":444:448  1e18 */\n      0x0de0b6b3a7640000\n        /* \"contracts/Staking.sol\":1330:1351  REWARD_RATE*totalTime */\n      tag_137\n      swap2\n      swap1\n      tag_138\n      jump\t// in\n    tag_137:\n        /* \"contracts/Staking.sol\":1310:1351  uint totalRewards = REWARD_RATE*totalTime */\n      swap1\n      pop\n        /* \"contracts/Staking.sol\":1369:1440  rewardPerTokenStored.add(totalRewards.mul(1e18).div(totalStakedTokens)) */\n      tag_139\n        /* \"contracts/Staking.sol\":1394:1439  totalRewards.mul(1e18).div(totalStakedTokens) */\n      tag_140\n        /* \"contracts/Staking.sol\":1421:1438  totalStakedTokens */\n      sload(0x03)\n        /* \"contracts/Staking.sol\":1394:1416  totalRewards.mul(1e18) */\n      tag_141\n        /* \"contracts/Staking.sol\":1411:1415  1e18 */\n      0x0de0b6b3a7640000\n        /* \"contracts/Staking.sol\":1394:1406  totalRewards */\n      dup6\n        /* \"contracts/Staking.sol\":1394:1410  totalRewards.mul */\n      tag_70\n      swap1\n        /* \"contracts/Staking.sol\":1394:1416  totalRewards.mul(1e18) */\n      swap2\n      swap1\n      0xffffffff\n      and\n      jump\t// in\n    tag_141:\n        /* \"contracts/Staking.sol\":1394:1420  totalRewards.mul(1e18).div */\n      tag_142\n      swap1\n        /* \"contracts/Staking.sol\":1394:1439  totalRewards.mul(1e18).div(totalStakedTokens) */\n      swap2\n      swap1\n      0xffffffff\n      and\n      jump\t// in\n    tag_140:\n        /* \"contracts/Staking.sol\":1369:1389  rewardPerTokenStored */\n      sload(0x04)\n        /* \"contracts/Staking.sol\":1369:1393  rewardPerTokenStored.add */\n      tag_71\n      swap1\n        /* \"contracts/Staking.sol\":1369:1440  rewardPerTokenStored.add(totalRewards.mul(1e18).div(totalStakedTokens)) */\n      swap2\n      swap1\n      0xffffffff\n      and\n      jump\t// in\n    tag_139:\n        /* \"contracts/Staking.sol\":1362:1440  return rewardPerTokenStored.add(totalRewards.mul(1e18).div(totalStakedTokens)) */\n      swap3\n      pop\n      pop\n      pop\n        /* \"contracts/Staking.sol\":1092:1448  function rewardPerToken() public view returns(uint){... */\n    tag_133:\n      swap1\n      jump\t// out\n        /* \"contracts/Staking.sol\":492:524  uint public rewardPerTokenStored */\n    tag_62:\n      sload(0x04)\n      dup2\n      jump\t// out\n        /* \"@openzeppelin/contracts/utils/math/SafeMath.sol\":3122:3218  function sub(uint256 a, uint256 b) internal pure returns (uint256) {... */\n    tag_69:\n        /* \"@openzeppelin/contracts/utils/math/SafeMath.sol\":3180:3187  uint256 */\n      0x00\n        /* \"@openzeppelin/contracts/utils/math/SafeMath.sol\":3210:3211  b */\n      dup2\n        /* \"@openzeppelin/contracts/utils/math/SafeMath.sol\":3206:3207  a */\n      dup4\n        /* \"@openzeppelin/contracts/utils/math/SafeMath.sol\":3206:3211  a - b */\n      tag_144\n      swap2\n      swap1\n      tag_136\n      jump\t// in\n    tag_144:\n        /* \"@openzeppelin/contracts/utils/math/SafeMath.sol\":3199:3211  return a - b */\n      swap1\n      pop\n        /* \"@openzeppelin/contracts/utils/math/SafeMath.sol\":3122:3218  function sub(uint256 a, uint256 b) internal pure returns (uint256) {... */\n      swap3\n      swap2\n      pop\n      pop\n      jump\t// out\n        /* \"@openzeppelin/contracts/utils/math/SafeMath.sol\":3465:3561  function mul(uint256 a, uint256 b) internal pure returns (uint256) {... */\n    tag_70:\n        /* \"@openzeppelin/contracts/utils/math/SafeMath.sol\":3523:3530  uint256 */\n      0x00\n        /* \"@openzeppelin/contracts/utils/math/SafeMath.sol\":3553:3554  b */\n      dup2\n        /* \"@openzeppelin/contracts/utils/math/SafeMath.sol\":3549:3550  a */\n      dup4\n        /* \"@openzeppelin/contracts/utils/math/SafeMath.sol\":3549:3554  a * b */\n      tag_146\n      swap2\n      swap1\n      tag_138\n      jump\t// in\n    tag_146:\n        /* \"@openzeppelin/contracts/utils/math/SafeMath.sol\":3542:3554  return a * b */\n      swap1\n      pop\n        /* \"@openzeppelin/contracts/utils/math/SafeMath.sol\":3465:3561  function mul(uint256 a, uint256 b) internal pure returns (uint256) {... */\n      swap3\n      swap2\n      pop\n      pop\n      jump\t// out\n        /* \"@openzeppelin/contracts/utils/math/SafeMath.sol\":2755:2851  function add(uint256 a, uint256 b) internal pure returns (uint256) {... */\n    tag_71:\n        /* \"@openzeppelin/contracts/utils/math/SafeMath.sol\":2813:2820  uint256 */\n      0x00\n        /* \"@openzeppelin/contracts/utils/math/SafeMath.sol\":2843:2844  b */\n      dup2\n        /* \"@openzeppelin/contracts/utils/math/SafeMath.sol\":2839:2840  a */\n      dup4\n        /* \"@openzeppelin/contracts/utils/math/SafeMath.sol\":2839:2844  a + b */\n      tag_148\n      swap2\n      swap1\n      tag_123\n      jump\t// in\n    tag_148:\n        /* \"@openzeppelin/contracts/utils/math/SafeMath.sol\":2832:2844  return a + b */\n      swap1\n      pop\n        /* \"@openzeppelin/contracts/utils/math/SafeMath.sol\":2755:2851  function add(uint256 a, uint256 b) internal pure returns (uint256) {... */\n      swap3\n      swap2\n      pop\n      pop\n      jump\t// out\n        /* \"@openzeppelin/contracts/security/ReentrancyGuard.sol\":2336:2623  function _nonReentrantBefore() private {... */\n    tag_74:\n        /* \"@openzeppelin/contracts/security/ReentrancyGuard.sol\":1759:1760  2 */\n      0x02\n        /* \"@openzeppelin/contracts/security/ReentrancyGuard.sol\":2468:2475  _status */\n      sload(0x00)\n        /* \"@openzeppelin/contracts/security/ReentrancyGuard.sol\":2468:2487  _status != _ENTERED */\n      sub\n        /* \"@openzeppelin/contracts/security/ReentrancyGuard.sol\":2460:2523  require(_status != _ENTERED, \"ReentrancyGuard: reentrant call\") */\n      tag_150\n      jumpi\n      mload(0x40)\n      0x08c379a000000000000000000000000000000000000000000000000000000000\n      dup2\n      mstore\n      0x04\n      add\n      tag_151\n      swap1\n      tag_152\n      jump\t// in\n    tag_151:\n      mload(0x40)\n      dup1\n      swap2\n      sub\n      swap1\n      revert\n    tag_150:\n        /* \"@openzeppelin/contracts/security/ReentrancyGuard.sol\":1759:1760  2 */\n      0x02\n        /* \"@openzeppelin/contracts/security/ReentrancyGuard.sol\":2598:2605  _status */\n      0x00\n        /* \"@openzeppelin/contracts/security/ReentrancyGuard.sol\":2598:2616  _status = _ENTERED */\n      dup2\n      swap1\n      sstore\n      pop\n        /* \"@openzeppelin/contracts/security/ReentrancyGuard.sol\":2336:2623  function _nonReentrantBefore() private {... */\n      jump\t// out\n        /* \"@openzeppelin/contracts/security/ReentrancyGuard.sol\":2629:2838  function _nonReentrantAfter() private {... */\n    tag_97:\n        /* \"@openzeppelin/contracts/security/ReentrancyGuard.sol\":1716:1717  1 */\n      0x01\n        /* \"@openzeppelin/contracts/security/ReentrancyGuard.sol\":2809:2816  _status */\n      0x00\n        /* \"@openzeppelin/contracts/security/ReentrancyGuard.sol\":2809:2831  _status = _NOT_ENTERED */\n      dup2\n      swap1\n      sstore\n      pop\n        /* \"@openzeppelin/contracts/security/ReentrancyGuard.sol\":2629:2838  function _nonReentrantAfter() private {... */\n      jump\t// out\n        /* \"@openzeppelin/contracts/utils/math/SafeMath.sol\":3850:3946  function div(uint256 a, uint256 b) internal pure returns (uint256) {... */\n    tag_142:\n        /* \"@openzeppelin/contracts/utils/math/SafeMath.sol\":3908:3915  uint256 */\n      0x00\n        /* \"@openzeppelin/contracts/utils/math/SafeMath.sol\":3938:3939  b */\n      dup2\n        /* \"@openzeppelin/contracts/utils/math/SafeMath.sol\":3934:3935  a */\n      dup4\n        /* \"@openzeppelin/contracts/utils/math/SafeMath.sol\":3934:3939  a / b */\n      tag_155\n      swap2\n      swap1\n      tag_156\n      jump\t// in\n    tag_155:\n        /* \"@openzeppelin/contracts/utils/math/SafeMath.sol\":3927:3939  return a / b */\n      swap1\n      pop\n        /* \"@openzeppelin/contracts/utils/math/SafeMath.sol\":3850:3946  function div(uint256 a, uint256 b) internal pure returns (uint256) {... */\n      swap3\n      swap2\n      pop\n      pop\n      jump\t// out\n        /* \"#utility.yul\":88:205   */\n    tag_158:\n        /* \"#utility.yul\":197:198   */\n      0x00\n        /* \"#utility.yul\":194:195   */\n      dup1\n        /* \"#utility.yul\":187:199   */\n      revert\n        /* \"#utility.yul\":334:460   */\n    tag_160:\n        /* \"#utility.yul\":371:378   */\n      0x00\n        /* \"#utility.yul\":411:453   */\n      0xffffffffffffffffffffffffffffffffffffffff\n        /* \"#utility.yul\":404:409   */\n      dup3\n        /* \"#utility.yul\":400:454   */\n      and\n        /* \"#utility.yul\":389:454   */\n      swap1\n      pop\n        /* \"#utility.yul\":334:460   */\n      swap2\n      swap1\n      pop\n      jump\t// out\n        /* \"#utility.yul\":466:562   */\n    tag_161:\n        /* \"#utility.yul\":503:510   */\n      0x00\n        /* \"#utility.yul\":532:556   */\n      tag_196\n        /* \"#utility.yul\":550:555   */\n      dup3\n        /* \"#utility.yul\":532:556   */\n      tag_160\n      jump\t// in\n    tag_196:\n        /* \"#utility.yul\":521:556   */\n      swap1\n      pop\n        /* \"#utility.yul\":466:562   */\n      swap2\n      swap1\n      pop\n      jump\t// out\n        /* \"#utility.yul\":568:690   */\n    tag_162:\n        /* \"#utility.yul\":641:665   */\n      tag_198\n        /* \"#utility.yul\":659:664   */\n      dup2\n        /* \"#utility.yul\":641:665   */\n      tag_161\n      jump\t// in\n    tag_198:\n        /* \"#utility.yul\":634:639   */\n      dup2\n        /* \"#utility.yul\":631:666   */\n      eq\n        /* \"#utility.yul\":621:684   */\n      tag_199\n      jumpi\n        /* \"#utility.yul\":680:681   */\n      0x00\n        /* \"#utility.yul\":677:678   */\n      dup1\n        /* \"#utility.yul\":670:682   */\n      revert\n        /* \"#utility.yul\":621:684   */\n    tag_199:\n        /* \"#utility.yul\":568:690   */\n      pop\n      jump\t// out\n        /* \"#utility.yul\":696:835   */\n    tag_163:\n        /* \"#utility.yul\":742:747   */\n      0x00\n        /* \"#utility.yul\":780:786   */\n      dup2\n        /* \"#utility.yul\":767:787   */\n      calldataload\n        /* \"#utility.yul\":758:787   */\n      swap1\n      pop\n        /* \"#utility.yul\":796:829   */\n      tag_201\n        /* \"#utility.yul\":823:828   */\n      dup2\n        /* \"#utility.yul\":796:829   */\n      tag_162\n      jump\t// in\n    tag_201:\n        /* \"#utility.yul\":696:835   */\n      swap3\n      swap2\n      pop\n      pop\n      jump\t// out\n        /* \"#utility.yul\":841:1170   */\n    tag_20:\n        /* \"#utility.yul\":900:906   */\n      0x00\n        /* \"#utility.yul\":949:951   */\n      0x20\n        /* \"#utility.yul\":937:946   */\n      dup3\n        /* \"#utility.yul\":928:935   */\n      dup5\n        /* \"#utility.yul\":924:947   */\n      sub\n        /* \"#utility.yul\":920:952   */\n      slt\n        /* \"#utility.yul\":917:1036   */\n      iszero\n      tag_203\n      jumpi\n        /* \"#utility.yul\":955:1034   */\n      tag_204\n      tag_158\n      jump\t// in\n    tag_204:\n        /* \"#utility.yul\":917:1036   */\n    tag_203:\n        /* \"#utility.yul\":1075:1076   */\n      0x00\n        /* \"#utility.yul\":1100:1153   */\n      tag_205\n        /* \"#utility.yul\":1145:1152   */\n      dup5\n        /* \"#utility.yul\":1136:1142   */\n      dup3\n        /* \"#utility.yul\":1125:1134   */\n      dup6\n        /* \"#utility.yul\":1121:1143   */\n      add\n        /* \"#utility.yul\":1100:1153   */\n      tag_163\n      jump\t// in\n    tag_205:\n        /* \"#utility.yul\":1090:1153   */\n      swap2\n      pop\n        /* \"#utility.yul\":1046:1163   */\n      pop\n        /* \"#utility.yul\":841:1170   */\n      swap3\n      swap2\n      pop\n      pop\n      jump\t// out\n        /* \"#utility.yul\":1176:1253   */\n    tag_164:\n        /* \"#utility.yul\":1213:1220   */\n      0x00\n        /* \"#utility.yul\":1242:1247   */\n      dup2\n        /* \"#utility.yul\":1231:1247   */\n      swap1\n      pop\n        /* \"#utility.yul\":1176:1253   */\n      swap2\n      swap1\n      pop\n      jump\t// out\n        /* \"#utility.yul\":1259:1377   */\n    tag_165:\n        /* \"#utility.yul\":1346:1370   */\n      tag_208\n        /* \"#utility.yul\":1364:1369   */\n      dup2\n        /* \"#utility.yul\":1346:1370   */\n      tag_164\n      jump\t// in\n    tag_208:\n        /* \"#utility.yul\":1341:1344   */\n      dup3\n        /* \"#utility.yul\":1334:1371   */\n      mstore\n        /* \"#utility.yul\":1259:1377   */\n      pop\n      pop\n      jump\t// out\n        /* \"#utility.yul\":1383:1605   */\n    tag_23:\n        /* \"#utility.yul\":1476:1480   */\n      0x00\n        /* \"#utility.yul\":1514:1516   */\n      0x20\n        /* \"#utility.yul\":1503:1512   */\n      dup3\n        /* \"#utility.yul\":1499:1517   */\n      add\n        /* \"#utility.yul\":1491:1517   */\n      swap1\n      pop\n        /* \"#utility.yul\":1527:1598   */\n      tag_210\n        /* \"#utility.yul\":1595:1596   */\n      0x00\n        /* \"#utility.yul\":1584:1593   */\n      dup4\n        /* \"#utility.yul\":1580:1597   */\n      add\n        /* \"#utility.yul\":1571:1577   */\n      dup5\n        /* \"#utility.yul\":1527:1598   */\n      tag_165\n      jump\t// in\n    tag_210:\n        /* \"#utility.yul\":1383:1605   */\n      swap3\n      swap2\n      pop\n      pop\n      jump\t// out\n        /* \"#utility.yul\":1611:1733   */\n    tag_166:\n        /* \"#utility.yul\":1684:1708   */\n      tag_212\n        /* \"#utility.yul\":1702:1707   */\n      dup2\n        /* \"#utility.yul\":1684:1708   */\n      tag_164\n      jump\t// in\n    tag_212:\n        /* \"#utility.yul\":1677:1682   */\n      dup2\n        /* \"#utility.yul\":1674:1709   */\n      eq\n        /* \"#utility.yul\":1664:1727   */\n      tag_213\n      jumpi\n        /* \"#utility.yul\":1723:1724   */\n      0x00\n        /* \"#utility.yul\":1720:1721   */\n      dup1\n        /* \"#utility.yul\":1713:1725   */\n      revert\n        /* \"#utility.yul\":1664:1727   */\n    tag_213:\n        /* \"#utility.yul\":1611:1733   */\n      pop\n      jump\t// out\n        /* \"#utility.yul\":1739:1878   */\n    tag_167:\n        /* \"#utility.yul\":1785:1790   */\n      0x00\n        /* \"#utility.yul\":1823:1829   */\n      dup2\n        /* \"#utility.yul\":1810:1830   */\n      calldataload\n        /* \"#utility.yul\":1801:1830   */\n      swap1\n      pop\n        /* \"#utility.yul\":1839:1872   */\n      tag_215\n        /* \"#utility.yul\":1866:1871   */\n      dup2\n        /* \"#utility.yul\":1839:1872   */\n      tag_166\n      jump\t// in\n    tag_215:\n        /* \"#utility.yul\":1739:1878   */\n      swap3\n      swap2\n      pop\n      pop\n      jump\t// out\n        /* \"#utility.yul\":1884:2213   */\n    tag_30:\n        /* \"#utility.yul\":1943:1949   */\n      0x00\n        /* \"#utility.yul\":1992:1994   */\n      0x20\n        /* \"#utility.yul\":1980:1989   */\n      dup3\n        /* \"#utility.yul\":1971:1978   */\n      dup5\n        /* \"#utility.yul\":1967:1990   */\n      sub\n        /* \"#utility.yul\":1963:1995   */\n      slt\n        /* \"#utility.yul\":1960:2079   */\n      iszero\n      tag_217\n      jumpi\n        /* \"#utility.yul\":1998:2077   */\n      tag_218\n      tag_158\n      jump\t// in\n    tag_218:\n        /* \"#utility.yul\":1960:2079   */\n    tag_217:\n        /* \"#utility.yul\":2118:2119   */\n      0x00\n        /* \"#utility.yul\":2143:2196   */\n      tag_219\n        /* \"#utility.yul\":2188:2195   */\n      dup5\n        /* \"#utility.yul\":2179:2185   */\n      dup3\n        /* \"#utility.yul\":2168:2177   */\n      dup6\n        /* \"#utility.yul\":2164:2186   */\n      add\n        /* \"#utility.yul\":2143:2196   */\n      tag_167\n      jump\t// in\n    tag_219:\n        /* \"#utility.yul\":2133:2196   */\n      swap2\n      pop\n        /* \"#utility.yul\":2089:2206   */\n      pop\n        /* \"#utility.yul\":1884:2213   */\n      swap3\n      swap2\n      pop\n      pop\n      jump\t// out\n        /* \"#utility.yul\":2219:2279   */\n    tag_168:\n        /* \"#utility.yul\":2247:2250   */\n      0x00\n        /* \"#utility.yul\":2268:2273   */\n      dup2\n        /* \"#utility.yul\":2261:2273   */\n      swap1\n      pop\n        /* \"#utility.yul\":2219:2279   */\n      swap2\n      swap1\n      pop\n      jump\t// out\n        /* \"#utility.yul\":2285:2427   */\n    tag_169:\n        /* \"#utility.yul\":2335:2344   */\n      0x00\n        /* \"#utility.yul\":2368:2421   */\n      tag_222\n        /* \"#utility.yul\":2386:2420   */\n      tag_223\n        /* \"#utility.yul\":2395:2419   */\n      tag_224\n        /* \"#utility.yul\":2413:2418   */\n      dup5\n        /* \"#utility.yul\":2395:2419   */\n      tag_160\n      jump\t// in\n    tag_224:\n        /* \"#utility.yul\":2386:2420   */\n      tag_168\n      jump\t// in\n    tag_223:\n        /* \"#utility.yul\":2368:2421   */\n      tag_160\n      jump\t// in\n    tag_222:\n        /* \"#utility.yul\":2355:2421   */\n      swap1\n      pop\n        /* \"#utility.yul\":2285:2427   */\n      swap2\n      swap1\n      pop\n      jump\t// out\n        /* \"#utility.yul\":2433:2559   */\n    tag_170:\n        /* \"#utility.yul\":2483:2492   */\n      0x00\n        /* \"#utility.yul\":2516:2553   */\n      tag_226\n        /* \"#utility.yul\":2547:2552   */\n      dup3\n        /* \"#utility.yul\":2516:2553   */\n      tag_169\n      jump\t// in\n    tag_226:\n        /* \"#utility.yul\":2503:2553   */\n      swap1\n      pop\n        /* \"#utility.yul\":2433:2559   */\n      swap2\n      swap1\n      pop\n      jump\t// out\n        /* \"#utility.yul\":2565:2705   */\n    tag_171:\n        /* \"#utility.yul\":2629:2638   */\n      0x00\n        /* \"#utility.yul\":2662:2699   */\n      tag_228\n        /* \"#utility.yul\":2693:2698   */\n      dup3\n        /* \"#utility.yul\":2662:2699   */\n      tag_170\n      jump\t// in\n    tag_228:\n        /* \"#utility.yul\":2649:2699   */\n      swap1\n      pop\n        /* \"#utility.yul\":2565:2705   */\n      swap2\n      swap1\n      pop\n      jump\t// out\n        /* \"#utility.yul\":2711:2870   */\n    tag_172:\n        /* \"#utility.yul\":2812:2863   */\n      tag_230\n        /* \"#utility.yul\":2857:2862   */\n      dup2\n        /* \"#utility.yul\":2812:2863   */\n      tag_171\n      jump\t// in\n    tag_230:\n        /* \"#utility.yul\":2807:2810   */\n      dup3\n        /* \"#utility.yul\":2800:2864   */\n      mstore\n        /* \"#utility.yul\":2711:2870   */\n      pop\n      pop\n      jump\t// out\n        /* \"#utility.yul\":2876:3126   */\n    tag_44:\n        /* \"#utility.yul\":2983:2987   */\n      0x00\n        /* \"#utility.yul\":3021:3023   */\n      0x20\n        /* \"#utility.yul\":3010:3019   */\n      dup3\n        /* \"#utility.yul\":3006:3024   */\n      add\n        /* \"#utility.yul\":2998:3024   */\n      swap1\n      pop\n        /* \"#utility.yul\":3034:3119   */\n      tag_232\n        /* \"#utility.yul\":3116:3117   */\n      0x00\n        /* \"#utility.yul\":3105:3114   */\n      dup4\n        /* \"#utility.yul\":3101:3118   */\n      add\n        /* \"#utility.yul\":3092:3098   */\n      dup5\n        /* \"#utility.yul\":3034:3119   */\n      tag_172\n      jump\t// in\n    tag_232:\n        /* \"#utility.yul\":2876:3126   */\n      swap3\n      swap2\n      pop\n      pop\n      jump\t// out\n        /* \"#utility.yul\":3132:3301   */\n    tag_173:\n        /* \"#utility.yul\":3216:3227   */\n      0x00\n        /* \"#utility.yul\":3250:3256   */\n      dup3\n        /* \"#utility.yul\":3245:3248   */\n      dup3\n        /* \"#utility.yul\":3238:3257   */\n      mstore\n        /* \"#utility.yul\":3290:3294   */\n      0x20\n        /* \"#utility.yul\":3285:3288   */\n      dup3\n        /* \"#utility.yul\":3281:3295   */\n      add\n        /* \"#utility.yul\":3266:3295   */\n      swap1\n      pop\n        /* \"#utility.yul\":3132:3301   */\n      swap3\n      swap2\n      pop\n      pop\n      jump\t// out\n        /* \"#utility.yul\":3307:3489   */\n    tag_174:\n        /* \"#utility.yul\":3447:3481   */\n      0x416d6f756e74206d7573742062652067726561746572207468616e207a65726f\n        /* \"#utility.yul\":3443:3444   */\n      0x00\n        /* \"#utility.yul\":3435:3441   */\n      dup3\n        /* \"#utility.yul\":3431:3445   */\n      add\n        /* \"#utility.yul\":3424:3482   */\n      mstore\n        /* \"#utility.yul\":3307:3489   */\n      pop\n      jump\t// out\n        /* \"#utility.yul\":3495:3861   */\n    tag_175:\n        /* \"#utility.yul\":3637:3640   */\n      0x00\n        /* \"#utility.yul\":3658:3725   */\n      tag_236\n        /* \"#utility.yul\":3722:3724   */\n      0x20\n        /* \"#utility.yul\":3717:3720   */\n      dup4\n        /* \"#utility.yul\":3658:3725   */\n      tag_173\n      jump\t// in\n    tag_236:\n        /* \"#utility.yul\":3651:3725   */\n      swap2\n      pop\n        /* \"#utility.yul\":3734:3827   */\n      tag_237\n        /* \"#utility.yul\":3823:3826   */\n      dup3\n        /* \"#utility.yul\":3734:3827   */\n      tag_174\n      jump\t// in\n    tag_237:\n        /* \"#utility.yul\":3852:3854   */\n      0x20\n        /* \"#utility.yul\":3847:3850   */\n      dup3\n        /* \"#utility.yul\":3843:3855   */\n      add\n        /* \"#utility.yul\":3836:3855   */\n      swap1\n      pop\n        /* \"#utility.yul\":3495:3861   */\n      swap2\n      swap1\n      pop\n      jump\t// out\n        /* \"#utility.yul\":3867:4286   */\n    tag_81:\n        /* \"#utility.yul\":4033:4037   */\n      0x00\n        /* \"#utility.yul\":4071:4073   */\n      0x20\n        /* \"#utility.yul\":4060:4069   */\n      dup3\n        /* \"#utility.yul\":4056:4074   */\n      add\n        /* \"#utility.yul\":4048:4074   */\n      swap1\n      pop\n        /* \"#utility.yul\":4120:4129   */\n      dup2\n        /* \"#utility.yul\":4114:4118   */\n      dup2\n        /* \"#utility.yul\":4110:4130   */\n      sub\n        /* \"#utility.yul\":4106:4107   */\n      0x00\n        /* \"#utility.yul\":4095:4104   */\n      dup4\n        /* \"#utility.yul\":4091:4108   */\n      add\n        /* \"#utility.yul\":4084:4131   */\n      mstore\n        /* \"#utility.yul\":4148:4279   */\n      tag_239\n        /* \"#utility.yul\":4274:4278   */\n      dup2\n        /* \"#utility.yul\":4148:4279   */\n      tag_175\n      jump\t// in\n    tag_239:\n        /* \"#utility.yul\":4140:4279   */\n      swap1\n      pop\n        /* \"#utility.yul\":3867:4286   */\n      swap2\n      swap1\n      pop\n      jump\t// out\n        /* \"#utility.yul\":4292:4466   */\n    tag_176:\n        /* \"#utility.yul\":4432:4458   */\n      0x5374616b656420616d6f756e74206e6f7420656e6f7567680000000000000000\n        /* \"#utility.yul\":4428:4429   */\n      0x00\n        /* \"#utility.yul\":4420:4426   */\n      dup3\n        /* \"#utility.yul\":4416:4430   */\n      add\n        /* \"#utility.yul\":4409:4459   */\n      mstore\n        /* \"#utility.yul\":4292:4466   */\n      pop\n      jump\t// out\n        /* \"#utility.yul\":4472:4838   */\n    tag_177:\n        /* \"#utility.yul\":4614:4617   */\n      0x00\n        /* \"#utility.yul\":4635:4702   */\n      tag_242\n        /* \"#utility.yul\":4699:4701   */\n      0x18\n        /* \"#utility.yul\":4694:4697   */\n      dup4\n        /* \"#utility.yul\":4635:4702   */\n      tag_173\n      jump\t// in\n    tag_242:\n        /* \"#utility.yul\":4628:4702   */\n      swap2\n      pop\n        /* \"#utility.yul\":4711:4804   */\n      tag_243\n        /* \"#utility.yul\":4800:4803   */\n      dup3\n        /* \"#utility.yul\":4711:4804   */\n      tag_176\n      jump\t// in\n    tag_243:\n        /* \"#utility.yul\":4829:4831   */\n      0x20\n        /* \"#utility.yul\":4824:4827   */\n      dup3\n        /* \"#utility.yul\":4820:4832   */\n      add\n        /* \"#utility.yul\":4813:4832   */\n      swap1\n      pop\n        /* \"#utility.yul\":4472:4838   */\n      swap2\n      swap1\n      pop\n      jump\t// out\n        /* \"#utility.yul\":4844:5263   */\n    tag_84:\n        /* \"#utility.yul\":5010:5014   */\n      0x00\n        /* \"#utility.yul\":5048:5050   */\n      0x20\n        /* \"#utility.yul\":5037:5046   */\n      dup3\n        /* \"#utility.yul\":5033:5051   */\n      add\n        /* \"#utility.yul\":5025:5051   */\n      swap1\n      pop\n        /* \"#utility.yul\":5097:5106   */\n      dup2\n        /* \"#utility.yul\":5091:5095   */\n      dup2\n        /* \"#utility.yul\":5087:5107   */\n      sub\n        /* \"#utility.yul\":5083:5084   */\n      0x00\n        /* \"#utility.yul\":5072:5081   */\n      dup4\n        /* \"#utility.yul\":5068:5085   */\n      add\n        /* \"#utility.yul\":5061:5108   */\n      mstore\n        /* \"#utility.yul\":5125:5256   */\n      tag_245\n        /* \"#utility.yul\":5251:5255   */\n      dup2\n        /* \"#utility.yul\":5125:5256   */\n      tag_177\n      jump\t// in\n    tag_245:\n        /* \"#utility.yul\":5117:5256   */\n      swap1\n      pop\n        /* \"#utility.yul\":4844:5263   */\n      swap2\n      swap1\n      pop\n      jump\t// out\n        /* \"#utility.yul\":5269:5387   */\n    tag_178:\n        /* \"#utility.yul\":5356:5380   */\n      tag_247\n        /* \"#utility.yul\":5374:5379   */\n      dup2\n        /* \"#utility.yul\":5356:5380   */\n      tag_161\n      jump\t// in\n    tag_247:\n        /* \"#utility.yul\":5351:5354   */\n      dup3\n        /* \"#utility.yul\":5344:5381   */\n      mstore\n        /* \"#utility.yul\":5269:5387   */\n      pop\n      pop\n      jump\t// out\n        /* \"#utility.yul\":5393:5725   */\n    tag_88:\n        /* \"#utility.yul\":5514:5518   */\n      0x00\n        /* \"#utility.yul\":5552:5554   */\n      0x40\n        /* \"#utility.yul\":5541:5550   */\n      dup3\n        /* \"#utility.yul\":5537:5555   */\n      add\n        /* \"#utility.yul\":5529:5555   */\n      swap1\n      pop\n        /* \"#utility.yul\":5565:5636   */\n      tag_249\n        /* \"#utility.yul\":5633:5634   */\n      0x00\n        /* \"#utility.yul\":5622:5631   */\n      dup4\n        /* \"#utility.yul\":5618:5635   */\n      add\n        /* \"#utility.yul\":5609:5615   */\n      dup6\n        /* \"#utility.yul\":5565:5636   */\n      tag_178\n      jump\t// in\n    tag_249:\n        /* \"#utility.yul\":5646:5718   */\n      tag_250\n        /* \"#utility.yul\":5714:5716   */\n      0x20\n        /* \"#utility.yul\":5703:5712   */\n      dup4\n        /* \"#utility.yul\":5699:5717   */\n      add\n        /* \"#utility.yul\":5690:5696   */\n      dup5\n        /* \"#utility.yul\":5646:5718   */\n      tag_165\n      jump\t// in\n    tag_250:\n        /* \"#utility.yul\":5393:5725   */\n      swap4\n      swap3\n      pop\n      pop\n      pop\n      jump\t// out\n        /* \"#utility.yul\":5731:5821   */\n    tag_179:\n        /* \"#utility.yul\":5765:5772   */\n      0x00\n        /* \"#utility.yul\":5808:5813   */\n      dup2\n        /* \"#utility.yul\":5801:5814   */\n      iszero\n        /* \"#utility.yul\":5794:5815   */\n      iszero\n        /* \"#utility.yul\":5783:5815   */\n      swap1\n      pop\n        /* \"#utility.yul\":5731:5821   */\n      swap2\n      swap1\n      pop\n      jump\t// out\n        /* \"#utility.yul\":5827:5943   */\n    tag_180:\n        /* \"#utility.yul\":5897:5918   */\n      tag_253\n        /* \"#utility.yul\":5912:5917   */\n      dup2\n        /* \"#utility.yul\":5897:5918   */\n      tag_179\n      jump\t// in\n    tag_253:\n        /* \"#utility.yul\":5890:5895   */\n      dup2\n        /* \"#utility.yul\":5887:5919   */\n      eq\n        /* \"#utility.yul\":5877:5937   */\n      tag_254\n      jumpi\n        /* \"#utility.yul\":5933:5934   */\n      0x00\n        /* \"#utility.yul\":5930:5931   */\n      dup1\n        /* \"#utility.yul\":5923:5935   */\n      revert\n        /* \"#utility.yul\":5877:5937   */\n    tag_254:\n        /* \"#utility.yul\":5827:5943   */\n      pop\n      jump\t// out\n        /* \"#utility.yul\":5949:6086   */\n    tag_181:\n        /* \"#utility.yul\":6003:6008   */\n      0x00\n        /* \"#utility.yul\":6034:6040   */\n      dup2\n        /* \"#utility.yul\":6028:6041   */\n      mload\n        /* \"#utility.yul\":6019:6041   */\n      swap1\n      pop\n        /* \"#utility.yul\":6050:6080   */\n      tag_256\n        /* \"#utility.yul\":6074:6079   */\n      dup2\n        /* \"#utility.yul\":6050:6080   */\n      tag_180\n      jump\t// in\n    tag_256:\n        /* \"#utility.yul\":5949:6086   */\n      swap3\n      swap2\n      pop\n      pop\n      jump\t// out\n        /* \"#utility.yul\":6092:6437   */\n    tag_92:\n        /* \"#utility.yul\":6159:6165   */\n      0x00\n        /* \"#utility.yul\":6208:6210   */\n      0x20\n        /* \"#utility.yul\":6196:6205   */\n      dup3\n        /* \"#utility.yul\":6187:6194   */\n      dup5\n        /* \"#utility.yul\":6183:6206   */\n      sub\n        /* \"#utility.yul\":6179:6211   */\n      slt\n        /* \"#utility.yul\":6176:6295   */\n      iszero\n      tag_258\n      jumpi\n        /* \"#utility.yul\":6214:6293   */\n      tag_259\n      tag_158\n      jump\t// in\n    tag_259:\n        /* \"#utility.yul\":6176:6295   */\n    tag_258:\n        /* \"#utility.yul\":6334:6335   */\n      0x00\n        /* \"#utility.yul\":6359:6420   */\n      tag_260\n        /* \"#utility.yul\":6412:6419   */\n      dup5\n        /* \"#utility.yul\":6403:6409   */\n      dup3\n        /* \"#utility.yul\":6392:6401   */\n      dup6\n        /* \"#utility.yul\":6388:6410   */\n      add\n        /* \"#utility.yul\":6359:6420   */\n      tag_181\n      jump\t// in\n    tag_260:\n        /* \"#utility.yul\":6349:6420   */\n      swap2\n      pop\n        /* \"#utility.yul\":6305:6430   */\n      pop\n        /* \"#utility.yul\":6092:6437   */\n      swap3\n      swap2\n      pop\n      pop\n      jump\t// out\n        /* \"#utility.yul\":6443:6608   */\n    tag_182:\n        /* \"#utility.yul\":6583:6600   */\n      0x5472616e73666572204661696c65640000000000000000000000000000000000\n        /* \"#utility.yul\":6579:6580   */\n      0x00\n        /* \"#utility.yul\":6571:6577   */\n      dup3\n        /* \"#utility.yul\":6567:6581   */\n      add\n        /* \"#utility.yul\":6560:6601   */\n      mstore\n        /* \"#utility.yul\":6443:6608   */\n      pop\n      jump\t// out\n        /* \"#utility.yul\":6614:6980   */\n    tag_183:\n        /* \"#utility.yul\":6756:6759   */\n      0x00\n        /* \"#utility.yul\":6777:6844   */\n      tag_263\n        /* \"#utility.yul\":6841:6843   */\n      0x0f\n        /* \"#utility.yul\":6836:6839   */\n      dup4\n        /* \"#utility.yul\":6777:6844   */\n      tag_173\n      jump\t// in\n    tag_263:\n        /* \"#utility.yul\":6770:6844   */\n      swap2\n      pop\n        /* \"#utility.yul\":6853:6946   */\n      tag_264\n        /* \"#utility.yul\":6942:6945   */\n      dup3\n        /* \"#utility.yul\":6853:6946   */\n      tag_182\n      jump\t// in\n    tag_264:\n        /* \"#utility.yul\":6971:6973   */\n      0x20\n        /* \"#utility.yul\":6966:6969   */\n      dup3\n        /* \"#utility.yul\":6962:6974   */\n      add\n        /* \"#utility.yul\":6955:6974   */\n      swap1\n      pop\n        /* \"#utility.yul\":6614:6980   */\n      swap2\n      swap1\n      pop\n      jump\t// out\n        /* \"#utility.yul\":6986:7405   */\n    tag_95:\n        /* \"#utility.yul\":7152:7156   */\n      0x00\n        /* \"#utility.yul\":7190:7192   */\n      0x20\n        /* \"#utility.yul\":7179:7188   */\n      dup3\n        /* \"#utility.yul\":7175:7193   */\n      add\n        /* \"#utility.yul\":7167:7193   */\n      swap1\n      pop\n        /* \"#utility.yul\":7239:7248   */\n      dup2\n        /* \"#utility.yul\":7233:7237   */\n      dup2\n        /* \"#utility.yul\":7229:7249   */\n      sub\n        /* \"#utility.yul\":7225:7226   */\n      0x00\n        /* \"#utility.yul\":7214:7223   */\n      dup4\n        /* \"#utility.yul\":7210:7227   */\n      add\n        /* \"#utility.yul\":7203:7250   */\n      mstore\n        /* \"#utility.yul\":7267:7398   */\n      tag_266\n        /* \"#utility.yul\":7393:7397   */\n      dup2\n        /* \"#utility.yul\":7267:7398   */\n      tag_183\n      jump\t// in\n    tag_266:\n        /* \"#utility.yul\":7259:7398   */\n      swap1\n      pop\n        /* \"#utility.yul\":6986:7405   */\n      swap2\n      swap1\n      pop\n      jump\t// out\n        /* \"#utility.yul\":7411:7580   */\n    tag_184:\n        /* \"#utility.yul\":7551:7572   */\n      0x4e6f205265776172647320746f20436c61696d00000000000000000000000000\n        /* \"#utility.yul\":7547:7548   */\n      0x00\n        /* \"#utility.yul\":7539:7545   */\n      dup3\n        /* \"#utility.yul\":7535:7549   */\n      add\n        /* \"#utility.yul\":7528:7573   */\n      mstore\n        /* \"#utility.yul\":7411:7580   */\n      pop\n      jump\t// out\n        /* \"#utility.yul\":7586:7952   */\n    tag_185:\n        /* \"#utility.yul\":7728:7731   */\n      0x00\n        /* \"#utility.yul\":7749:7816   */\n      tag_269\n        /* \"#utility.yul\":7813:7815   */\n      0x13\n        /* \"#utility.yul\":7808:7811   */\n      dup4\n        /* \"#utility.yul\":7749:7816   */\n      tag_173\n      jump\t// in\n    tag_269:\n        /* \"#utility.yul\":7742:7816   */\n      swap2\n      pop\n        /* \"#utility.yul\":7825:7918   */\n      tag_270\n        /* \"#utility.yul\":7914:7917   */\n      dup3\n        /* \"#utility.yul\":7825:7918   */\n      tag_184\n      jump\t// in\n    tag_270:\n        /* \"#utility.yul\":7943:7945   */\n      0x20\n        /* \"#utility.yul\":7938:7941   */\n      dup3\n        /* \"#utility.yul\":7934:7946   */\n      add\n        /* \"#utility.yul\":7927:7946   */\n      swap1\n      pop\n        /* \"#utility.yul\":7586:7952   */\n      swap2\n      swap1\n      pop\n      jump\t// out\n        /* \"#utility.yul\":7958:8377   */\n    tag_106:\n        /* \"#utility.yul\":8124:8128   */\n      0x00\n        /* \"#utility.yul\":8162:8164   */\n      0x20\n        /* \"#utility.yul\":8151:8160   */\n      dup3\n        /* \"#utility.yul\":8147:8165   */\n      add\n        /* \"#utility.yul\":8139:8165   */\n      swap1\n      pop\n        /* \"#utility.yul\":8211:8220   */\n      dup2\n        /* \"#utility.yul\":8205:8209   */\n      dup2\n        /* \"#utility.yul\":8201:8221   */\n      sub\n        /* \"#utility.yul\":8197:8198   */\n      0x00\n        /* \"#utility.yul\":8186:8195   */\n      dup4\n        /* \"#utility.yul\":8182:8199   */\n      add\n        /* \"#utility.yul\":8175:8222   */\n      mstore\n        /* \"#utility.yul\":8239:8370   */\n      tag_272\n        /* \"#utility.yul\":8365:8369   */\n      dup2\n        /* \"#utility.yul\":8239:8370   */\n      tag_185\n      jump\t// in\n    tag_272:\n        /* \"#utility.yul\":8231:8370   */\n      swap1\n      pop\n        /* \"#utility.yul\":7958:8377   */\n      swap2\n      swap1\n      pop\n      jump\t// out\n        /* \"#utility.yul\":8383:8563   */\n    tag_186:\n        /* \"#utility.yul\":8431:8508   */\n      0x4e487b7100000000000000000000000000000000000000000000000000000000\n        /* \"#utility.yul\":8428:8429   */\n      0x00\n        /* \"#utility.yul\":8421:8509   */\n      mstore\n        /* \"#utility.yul\":8528:8532   */\n      0x11\n        /* \"#utility.yul\":8525:8526   */\n      0x04\n        /* \"#utility.yul\":8518:8533   */\n      mstore\n        /* \"#utility.yul\":8552:8556   */\n      0x24\n        /* \"#utility.yul\":8549:8550   */\n      0x00\n        /* \"#utility.yul\":8542:8557   */\n      revert\n        /* \"#utility.yul\":8569:8760   */\n    tag_123:\n        /* \"#utility.yul\":8609:8612   */\n      0x00\n        /* \"#utility.yul\":8628:8648   */\n      tag_275\n        /* \"#utility.yul\":8646:8647   */\n      dup3\n        /* \"#utility.yul\":8628:8648   */\n      tag_164\n      jump\t// in\n    tag_275:\n        /* \"#utility.yul\":8623:8648   */\n      swap2\n      pop\n        /* \"#utility.yul\":8662:8682   */\n      tag_276\n        /* \"#utility.yul\":8680:8681   */\n      dup4\n        /* \"#utility.yul\":8662:8682   */\n      tag_164\n      jump\t// in\n    tag_276:\n        /* \"#utility.yul\":8657:8682   */\n      swap3\n      pop\n        /* \"#utility.yul\":8705:8706   */\n      dup3\n        /* \"#utility.yul\":8702:8703   */\n      dup3\n        /* \"#utility.yul\":8698:8707   */\n      add\n        /* \"#utility.yul\":8691:8707   */\n      swap1\n      pop\n        /* \"#utility.yul\":8726:8729   */\n      dup1\n        /* \"#utility.yul\":8723:8724   */\n      dup3\n        /* \"#utility.yul\":8720:8730   */\n      gt\n        /* \"#utility.yul\":8717:8753   */\n      iszero\n      tag_277\n      jumpi\n        /* \"#utility.yul\":8733:8751   */\n      tag_278\n      tag_186\n      jump\t// in\n    tag_278:\n        /* \"#utility.yul\":8717:8753   */\n    tag_277:\n        /* \"#utility.yul\":8569:8760   */\n      swap3\n      swap2\n      pop\n      pop\n      jump\t// out\n        /* \"#utility.yul\":8766:9208   */\n    tag_126:\n        /* \"#utility.yul\":8915:8919   */\n      0x00\n        /* \"#utility.yul\":8953:8955   */\n      0x60\n        /* \"#utility.yul\":8942:8951   */\n      dup3\n        /* \"#utility.yul\":8938:8956   */\n      add\n        /* \"#utility.yul\":8930:8956   */\n      swap1\n      pop\n        /* \"#utility.yul\":8966:9037   */\n      tag_280\n        /* \"#utility.yul\":9034:9035   */\n      0x00\n        /* \"#utility.yul\":9023:9032   */\n      dup4\n        /* \"#utility.yul\":9019:9036   */\n      add\n        /* \"#utility.yul\":9010:9016   */\n      dup7\n        /* \"#utility.yul\":8966:9037   */\n      tag_178\n      jump\t// in\n    tag_280:\n        /* \"#utility.yul\":9047:9119   */\n      tag_281\n        /* \"#utility.yul\":9115:9117   */\n      0x20\n        /* \"#utility.yul\":9104:9113   */\n      dup4\n        /* \"#utility.yul\":9100:9118   */\n      add\n        /* \"#utility.yul\":9091:9097   */\n      dup6\n        /* \"#utility.yul\":9047:9119   */\n      tag_178\n      jump\t// in\n    tag_281:\n        /* \"#utility.yul\":9129:9201   */\n      tag_282\n        /* \"#utility.yul\":9197:9199   */\n      0x40\n        /* \"#utility.yul\":9186:9195   */\n      dup4\n        /* \"#utility.yul\":9182:9200   */\n      add\n        /* \"#utility.yul\":9173:9179   */\n      dup5\n        /* \"#utility.yul\":9129:9201   */\n      tag_165\n      jump\t// in\n    tag_282:\n        /* \"#utility.yul\":8766:9208   */\n      swap5\n      swap4\n      pop\n      pop\n      pop\n      pop\n      jump\t// out\n        /* \"#utility.yul\":9214:9408   */\n    tag_136:\n        /* \"#utility.yul\":9254:9258   */\n      0x00\n        /* \"#utility.yul\":9274:9294   */\n      tag_284\n        /* \"#utility.yul\":9292:9293   */\n      dup3\n        /* \"#utility.yul\":9274:9294   */\n      tag_164\n      jump\t// in\n    tag_284:\n        /* \"#utility.yul\":9269:9294   */\n      swap2\n      pop\n        /* \"#utility.yul\":9308:9328   */\n      tag_285\n        /* \"#utility.yul\":9326:9327   */\n      dup4\n        /* \"#utility.yul\":9308:9328   */\n      tag_164\n      jump\t// in\n    tag_285:\n        /* \"#utility.yul\":9303:9328   */\n      swap3\n      pop\n        /* \"#utility.yul\":9352:9353   */\n      dup3\n        /* \"#utility.yul\":9349:9350   */\n      dup3\n        /* \"#utility.yul\":9345:9354   */\n      sub\n        /* \"#utility.yul\":9337:9354   */\n      swap1\n      pop\n        /* \"#utility.yul\":9376:9377   */\n      dup2\n        /* \"#utility.yul\":9370:9374   */\n      dup2\n        /* \"#utility.yul\":9367:9378   */\n      gt\n        /* \"#utility.yul\":9364:9401   */\n      iszero\n      tag_286\n      jumpi\n        /* \"#utility.yul\":9381:9399   */\n      tag_287\n      tag_186\n      jump\t// in\n    tag_287:\n        /* \"#utility.yul\":9364:9401   */\n    tag_286:\n        /* \"#utility.yul\":9214:9408   */\n      swap3\n      swap2\n      pop\n      pop\n      jump\t// out\n        /* \"#utility.yul\":9414:9824   */\n    tag_138:\n        /* \"#utility.yul\":9454:9461   */\n      0x00\n        /* \"#utility.yul\":9477:9497   */\n      tag_289\n        /* \"#utility.yul\":9495:9496   */\n      dup3\n        /* \"#utility.yul\":9477:9497   */\n      tag_164\n      jump\t// in\n    tag_289:\n        /* \"#utility.yul\":9472:9497   */\n      swap2\n      pop\n        /* \"#utility.yul\":9511:9531   */\n      tag_290\n        /* \"#utility.yul\":9529:9530   */\n      dup4\n        /* \"#utility.yul\":9511:9531   */\n      tag_164\n      jump\t// in\n    tag_290:\n        /* \"#utility.yul\":9506:9531   */\n      swap3\n      pop\n        /* \"#utility.yul\":9566:9567   */\n      dup3\n        /* \"#utility.yul\":9563:9564   */\n      dup3\n        /* \"#utility.yul\":9559:9568   */\n      mul\n        /* \"#utility.yul\":9588:9618   */\n      tag_291\n        /* \"#utility.yul\":9606:9617   */\n      dup2\n        /* \"#utility.yul\":9588:9618   */\n      tag_164\n      jump\t// in\n    tag_291:\n        /* \"#utility.yul\":9577:9618   */\n      swap2\n      pop\n        /* \"#utility.yul\":9767:9768   */\n      dup3\n        /* \"#utility.yul\":9758:9765   */\n      dup3\n        /* \"#utility.yul\":9754:9769   */\n      div\n        /* \"#utility.yul\":9751:9752   */\n      dup5\n        /* \"#utility.yul\":9748:9770   */\n      eq\n        /* \"#utility.yul\":9728:9729   */\n      dup4\n        /* \"#utility.yul\":9721:9730   */\n      iszero\n        /* \"#utility.yul\":9701:9784   */\n      or\n        /* \"#utility.yul\":9678:9817   */\n      tag_292\n      jumpi\n        /* \"#utility.yul\":9797:9815   */\n      tag_293\n      tag_186\n      jump\t// in\n    tag_293:\n        /* \"#utility.yul\":9678:9817   */\n    tag_292:\n        /* \"#utility.yul\":9462:9824   */\n      pop\n        /* \"#utility.yul\":9414:9824   */\n      swap3\n      swap2\n      pop\n      pop\n      jump\t// out\n        /* \"#utility.yul\":9830:10011   */\n    tag_187:\n        /* \"#utility.yul\":9970:10003   */\n      0x5265656e7472616e637947756172643a207265656e7472616e742063616c6c00\n        /* \"#utility.yul\":9966:9967   */\n      0x00\n        /* \"#utility.yul\":9958:9964   */\n      dup3\n        /* \"#utility.yul\":9954:9968   */\n      add\n        /* \"#utility.yul\":9947:10004   */\n      mstore\n        /* \"#utility.yul\":9830:10011   */\n      pop\n      jump\t// out\n        /* \"#utility.yul\":10017:10383   */\n    tag_188:\n        /* \"#utility.yul\":10159:10162   */\n      0x00\n        /* \"#utility.yul\":10180:10247   */\n      tag_296\n        /* \"#utility.yul\":10244:10246   */\n      0x1f\n        /* \"#utility.yul\":10239:10242   */\n      dup4\n        /* \"#utility.yul\":10180:10247   */\n      tag_173\n      jump\t// in\n    tag_296:\n        /* \"#utility.yul\":10173:10247   */\n      swap2\n      pop\n        /* \"#utility.yul\":10256:10349   */\n      tag_297\n        /* \"#utility.yul\":10345:10348   */\n      dup3\n        /* \"#utility.yul\":10256:10349   */\n      tag_187\n      jump\t// in\n    tag_297:\n        /* \"#utility.yul\":10374:10376   */\n      0x20\n        /* \"#utility.yul\":10369:10372   */\n      dup3\n        /* \"#utility.yul\":10365:10377   */\n      add\n        /* \"#utility.yul\":10358:10377   */\n      swap1\n      pop\n        /* \"#utility.yul\":10017:10383   */\n      swap2\n      swap1\n      pop\n      jump\t// out\n        /* \"#utility.yul\":10389:10808   */\n    tag_152:\n        /* \"#utility.yul\":10555:10559   */\n      0x00\n        /* \"#utility.yul\":10593:10595   */\n      0x20\n        /* \"#utility.yul\":10582:10591   */\n      dup3\n        /* \"#utility.yul\":10578:10596   */\n      add\n        /* \"#utility.yul\":10570:10596   */\n      swap1\n      pop\n        /* \"#utility.yul\":10642:10651   */\n      dup2\n        /* \"#utility.yul\":10636:10640   */\n      dup2\n        /* \"#utility.yul\":10632:10652   */\n      sub\n        /* \"#utility.yul\":10628:10629   */\n      0x00\n        /* \"#utility.yul\":10617:10626   */\n      dup4\n        /* \"#utility.yul\":10613:10630   */\n      add\n        /* \"#utility.yul\":10606:10653   */\n      mstore\n        /* \"#utility.yul\":10670:10801   */\n      tag_299\n        /* \"#utility.yul\":10796:10800   */\n      dup2\n        /* \"#utility.yul\":10670:10801   */\n      tag_188\n      jump\t// in\n    tag_299:\n        /* \"#utility.yul\":10662:10801   */\n      swap1\n      pop\n        /* \"#utility.yul\":10389:10808   */\n      swap2\n      swap1\n      pop\n      jump\t// out\n        /* \"#utility.yul\":10814:10994   */\n    tag_189:\n        /* \"#utility.yul\":10862:10939   */\n      0x4e487b7100000000000000000000000000000000000000000000000000000000\n        /* \"#utility.yul\":10859:10860   */\n      0x00\n        /* \"#utility.yul\":10852:10940   */\n      mstore\n        /* \"#utility.yul\":10959:10963   */\n      0x12\n        /* \"#utility.yul\":10956:10957   */\n      0x04\n        /* \"#utility.yul\":10949:10964   */\n      mstore\n        /* \"#utility.yul\":10983:10987   */\n      0x24\n        /* \"#utility.yul\":10980:10981   */\n      0x00\n        /* \"#utility.yul\":10973:10988   */\n      revert\n        /* \"#utility.yul\":11000:11185   */\n    tag_156:\n        /* \"#utility.yul\":11040:11041   */\n      0x00\n        /* \"#utility.yul\":11057:11077   */\n      tag_302\n        /* \"#utility.yul\":11075:11076   */\n      dup3\n        /* \"#utility.yul\":11057:11077   */\n      tag_164\n      jump\t// in\n    tag_302:\n        /* \"#utility.yul\":11052:11077   */\n      swap2\n      pop\n        /* \"#utility.yul\":11091:11111   */\n      tag_303\n        /* \"#utility.yul\":11109:11110   */\n      dup4\n        /* \"#utility.yul\":11091:11111   */\n      tag_164\n      jump\t// in\n    tag_303:\n        /* \"#utility.yul\":11086:11111   */\n      swap3\n      pop\n        /* \"#utility.yul\":11130:11131   */\n      dup3\n        /* \"#utility.yul\":11120:11155   */\n      tag_304\n      jumpi\n        /* \"#utility.yul\":11135:11153   */\n      tag_305\n      tag_189\n      jump\t// in\n    tag_305:\n        /* \"#utility.yul\":11120:11155   */\n    tag_304:\n        /* \"#utility.yul\":11177:11178   */\n      dup3\n        /* \"#utility.yul\":11174:11175   */\n      dup3\n        /* \"#utility.yul\":11170:11179   */\n      div\n        /* \"#utility.yul\":11165:11179   */\n      swap1\n      pop\n        /* \"#utility.yul\":11000:11185   */\n      swap3\n      swap2\n      pop\n      pop\n      jump\t// out\n\n    auxdata: 0xa2646970667358221220be00278074f701399ae2cba97cf7825aeefda448a406d143f190663218572f5264736f6c63430008160033\n}\n",
				"bytecode": {
					"linkReferences": {},
					"object": "608060405234801562000010575f80fd5b50604051620015153803806200151583398181016040528101906200003691906200012a565b60015f819055508160015f6101000a81548173ffffffffffffffffffffffffffffffffffffffff021916908373ffffffffffffffffffffffffffffffffffffffff1602179055508060025f6101000a81548173ffffffffffffffffffffffffffffffffffffffff021916908373ffffffffffffffffffffffffffffffffffffffff16021790555050506200016f565b5f80fd5b5f73ffffffffffffffffffffffffffffffffffffffff82169050919050565b5f620000f482620000c9565b9050919050565b6200010681620000e8565b811462000111575f80fd5b50565b5f815190506200012481620000fb565b92915050565b5f8060408385031215620001435762000142620000c5565b5b5f620001528582860162000114565b9250506020620001658582860162000114565b9150509250929050565b611398806200017d5f395ff3fe608060405234801561000f575f80fd5b50600436106100cc575f3560e01c80636374cc001161008a578063adca9b7211610064578063adca9b721461020e578063c8f33c911461022c578063cd3daf9d1461024a578063df136d6514610268576100cc565b80636374cc00146101a45780638b876347146101c2578063a694fc3a146101f2576100cc565b80628cc262146100d05780630700037d146101005780632e1a7d4d146101305780633d18b9121461014c5780635997bb37146101565780636021726714610174575b5f80fd5b6100ea60048036038101906100e59190610e29565b610286565b6040516100f79190610e6c565b60405180910390f35b61011a60048036038101906101159190610e29565b610383565b6040516101279190610e6c565b60405180910390f35b61014a60048036038101906101459190610eaf565b610398565b005b6101546106e2565b005b61015e610983565b60405161016b9190610e6c565b60405180910390f35b61018e60048036038101906101899190610e29565b61098f565b60405161019b9190610e6c565b60405180910390f35b6101ac6109a4565b6040516101b99190610f35565b60405180910390f35b6101dc60048036038101906101d79190610e29565b6109c9565b6040516101e99190610e6c565b60405180910390f35b61020c60048036038101906102079190610eaf565b6109de565b005b610216610c69565b6040516102239190610f35565b60405180910390f35b610234610c8e565b6040516102419190610e6c565b60405180910390f35b610252610c94565b60405161025f9190610e6c565b60405180910390f35b610270610d1b565b60405161027d9190610e6c565b60405180910390f35b5f61037c60075f8473ffffffffffffffffffffffffffffffffffffffff1673ffffffffffffffffffffffffffffffffffffffff1681526020019081526020015f205461036e61032260085f8773ffffffffffffffffffffffffffffffffffffffff1673ffffffffffffffffffffffffffffffffffffffff1681526020019081526020015f2054610314610c94565b610d2190919063ffffffff16565b60065f8773ffffffffffffffffffffffffffffffffffffffff1673ffffffffffffffffffffffffffffffffffffffff1681526020019081526020015f2054610d3690919063ffffffff16565b610d4b90919063ffffffff16565b9050919050565b6007602052805f5260405f205f915090505481565b6103a0610d60565b336103a9610c94565b600481905550426005819055506103bf81610286565b60075f8373ffffffffffffffffffffffffffffffffffffffff1673ffffffffffffffffffffffffffffffffffffffff1681526020019081526020015f208190555060045460085f8373ffffffffffffffffffffffffffffffffffffffff1673ffffffffffffffffffffffffffffffffffffffff1681526020019081526020015f20819055505f8211610486576040517f08c379a000000000000000000000000000000000000000000000000000000000815260040161047d90610fa8565b60405180910390fd5b8160065f3373ffffffffffffffffffffffffffffffffffffffff1673ffffffffffffffffffffffffffffffffffffffff1681526020019081526020015f20541015610506576040517f08c379a00000000000000000000000000000000000000000000000000000000081526004016104fd90611010565b60405180910390fd5b61051b82600354610d2190919063ffffffff16565b6003819055506105718260065f3373ffffffffffffffffffffffffffffffffffffffff1673ffffffffffffffffffffffffffffffffffffffff1681526020019081526020015f2054610d2190919063ffffffff16565b60065f3373ffffffffffffffffffffffffffffffffffffffff1673ffffffffffffffffffffffffffffffffffffffff1681526020019081526020015f2081905550813373ffffffffffffffffffffffffffffffffffffffff167f7084f5476618d8e60b11ef0d7d3f06914655adb8793e28ff7f018d4c76d505d560405160405180910390a35f60015f9054906101000a900473ffffffffffffffffffffffffffffffffffffffff1673ffffffffffffffffffffffffffffffffffffffff1663a9059cbb33856040518363ffffffff1660e01b815260040161065392919061103d565b6020604051808303815f875af115801561066f573d5f803e3d5ffd5b505050506040513d601f19601f820116820180604052508101906106939190611099565b9050806106d5576040517f08c379a00000000000000000000000000000000000000000000000000000000081526004016106cc9061110e565b60405180910390fd5b50506106df610dad565b50565b6106ea610d60565b336106f3610c94565b6004819055504260058190555061070981610286565b60075f8373ffffffffffffffffffffffffffffffffffffffff1673ffffffffffffffffffffffffffffffffffffffff1681526020019081526020015f208190555060045460085f8373ffffffffffffffffffffffffffffffffffffffff1673ffffffffffffffffffffffffffffffffffffffff1681526020019081526020015f20819055505f60075f3373ffffffffffffffffffffffffffffffffffffffff1673ffffffffffffffffffffffffffffffffffffffff1681526020019081526020015f205490505f8111610811576040517f08c379a000000000000000000000000000000000000000000000000000000000815260040161080890611176565b60405180910390fd5b5f60075f3373ffffffffffffffffffffffffffffffffffffffff1673ffffffffffffffffffffffffffffffffffffffff1681526020019081526020015f2081905550803373ffffffffffffffffffffffffffffffffffffffff167ffc30cddea38e2bf4d6ea7d3f9ed3b6ad7f176419f4963bd81318067a4aee73fe60405160405180910390a35f60025f9054906101000a900473ffffffffffffffffffffffffffffffffffffffff1673ffffffffffffffffffffffffffffffffffffffff1663a9059cbb33846040518363ffffffff1660e01b81526004016108f492919061103d565b6020604051808303815f875af1158015610910573d5f803e3d5ffd5b505050506040513d601f19601f820116820180604052508101906109349190611099565b905080610976576040517f08c379a000000000000000000000000000000000000000000000000000000000815260040161096d9061110e565b60405180910390fd5b505050610981610dad565b565b670de0b6b3a764000081565b6006602052805f5260405f205f915090505481565b60025f9054906101000a900473ffffffffffffffffffffffffffffffffffffffff1681565b6008602052805f5260405f205f915090505481565b6109e6610d60565b336109ef610c94565b60048190555042600581905550610a0581610286565b60075f8373ffffffffffffffffffffffffffffffffffffffff1673ffffffffffffffffffffffffffffffffffffffff1681526020019081526020015f208190555060045460085f8373ffffffffffffffffffffffffffffffffffffffff1673ffffffffffffffffffffffffffffffffffffffff1681526020019081526020015f20819055505f8211610acc576040517f08c379a0000000000000000000000000000000000000000000000000000000008152600401610ac390610fa8565b60405180910390fd5b8160035f828254610add91906111c1565b925050819055508160065f3373ffffffffffffffffffffffffffffffffffffffff1673ffffffffffffffffffffffffffffffffffffffff1681526020019081526020015f205f828254610b3091906111c1565b92505081905550813373ffffffffffffffffffffffffffffffffffffffff167f9e71bc8eea02a63969f509818f2dafb9254532904319f9dbda79b67bd34a5f3d60405160405180910390a35f60015f9054906101000a900473ffffffffffffffffffffffffffffffffffffffff1673ffffffffffffffffffffffffffffffffffffffff166323b872dd3330866040518463ffffffff1660e01b8152600401610bda939291906111f4565b6020604051808303815f875af1158015610bf6573d5f803e3d5ffd5b505050506040513d601f19601f82011682018060405250810190610c1a9190611099565b905080610c5c576040517f08c379a0000000000000000000000000000000000000000000000000000000008152600401610c539061110e565b60405180910390fd5b5050610c66610dad565b50565b60015f9054906101000a900473ffffffffffffffffffffffffffffffffffffffff1681565b60055481565b5f8060035403610ca8576004549050610d18565b5f60055442610cb79190611229565b90505f81670de0b6b3a7640000610cce919061125c565b9050610d13610d02600354610cf4670de0b6b3a764000085610d3690919063ffffffff16565b610db690919063ffffffff16565b600454610d4b90919063ffffffff16565b925050505b90565b60045481565b5f8183610d2e9190611229565b905092915050565b5f8183610d43919061125c565b905092915050565b5f8183610d5891906111c1565b905092915050565b60025f5403610da4576040517f08c379a0000000000000000000000000000000000000000000000000000000008152600401610d9b906112e7565b60405180910390fd5b60025f81905550565b60015f81905550565b5f8183610dc39190611332565b905092915050565b5f80fd5b5f73ffffffffffffffffffffffffffffffffffffffff82169050919050565b5f610df882610dcf565b9050919050565b610e0881610dee565b8114610e12575f80fd5b50565b5f81359050610e2381610dff565b92915050565b5f60208284031215610e3e57610e3d610dcb565b5b5f610e4b84828501610e15565b91505092915050565b5f819050919050565b610e6681610e54565b82525050565b5f602082019050610e7f5f830184610e5d565b92915050565b610e8e81610e54565b8114610e98575f80fd5b50565b5f81359050610ea981610e85565b92915050565b5f60208284031215610ec457610ec3610dcb565b5b5f610ed184828501610e9b565b91505092915050565b5f819050919050565b5f610efd610ef8610ef384610dcf565b610eda565b610dcf565b9050919050565b5f610f0e82610ee3565b9050919050565b5f610f1f82610f04565b9050919050565b610f2f81610f15565b82525050565b5f602082019050610f485f830184610f26565b92915050565b5f82825260208201905092915050565b7f416d6f756e74206d7573742062652067726561746572207468616e207a65726f5f82015250565b5f610f92602083610f4e565b9150610f9d82610f5e565b602082019050919050565b5f6020820190508181035f830152610fbf81610f86565b9050919050565b7f5374616b656420616d6f756e74206e6f7420656e6f75676800000000000000005f82015250565b5f610ffa601883610f4e565b915061100582610fc6565b602082019050919050565b5f6020820190508181035f83015261102781610fee565b9050919050565b61103781610dee565b82525050565b5f6040820190506110505f83018561102e565b61105d6020830184610e5d565b9392505050565b5f8115159050919050565b61107881611064565b8114611082575f80fd5b50565b5f815190506110938161106f565b92915050565b5f602082840312156110ae576110ad610dcb565b5b5f6110bb84828501611085565b91505092915050565b7f5472616e73666572204661696c656400000000000000000000000000000000005f82015250565b5f6110f8600f83610f4e565b9150611103826110c4565b602082019050919050565b5f6020820190508181035f830152611125816110ec565b9050919050565b7f4e6f205265776172647320746f20436c61696d000000000000000000000000005f82015250565b5f611160601383610f4e565b915061116b8261112c565b602082019050919050565b5f6020820190508181035f83015261118d81611154565b9050919050565b7f4e487b71000000000000000000000000000000000000000000000000000000005f52601160045260245ffd5b5f6111cb82610e54565b91506111d683610e54565b92508282019050808211156111ee576111ed611194565b5b92915050565b5f6060820190506112075f83018661102e565b611214602083018561102e565b6112216040830184610e5d565b949350505050565b5f61123382610e54565b915061123e83610e54565b925082820390508181111561125657611255611194565b5b92915050565b5f61126682610e54565b915061127183610e54565b925082820261127f81610e54565b9150828204841483151761129657611295611194565b5b5092915050565b7f5265656e7472616e637947756172643a207265656e7472616e742063616c6c005f82015250565b5f6112d1601f83610f4e565b91506112dc8261129d565b602082019050919050565b5f6020820190508181035f8301526112fe816112c5565b9050919050565b7f4e487b71000000000000000000000000000000000000000000000000000000005f52601260045260245ffd5b5f61133c82610e54565b915061134783610e54565b92508261135757611356611305565b5b82820490509291505056fea2646970667358221220be00278074f701399ae2cba97cf7825aeefda448a406d143f190663218572f5264736f6c63430008160033",
					"opcodes": "PUSH1 0x80 PUSH1 0x40 MSTORE CALLVALUE DUP1 ISZERO PUSH3 0x10 JUMPI PUSH0 DUP1 REVERT JUMPDEST POP PUSH1 0x40 MLOAD PUSH3 0x1515 CODESIZE SUB DUP1 PUSH3 0x1515 DUP4 CODECOPY DUP2 DUP2 ADD PUSH1 0x40 MSTORE DUP2 ADD SWAP1 PUSH3 0x36 SWAP2 SWAP1 PUSH3 0x12A JUMP JUMPDEST PUSH1 0x1 PUSH0 DUP2 SWAP1 SSTORE POP DUP2 PUSH1 0x1 PUSH0 PUSH2 0x100 EXP DUP2 SLOAD DUP2 PUSH20 0xFFFFFFFFFFFFFFFFFFFFFFFFFFFFFFFFFFFFFFFF MUL NOT AND SWAP1 DUP4 PUSH20 0xFFFFFFFFFFFFFFFFFFFFFFFFFFFFFFFFFFFFFFFF AND MUL OR SWAP1 SSTORE POP DUP1 PUSH1 0x2 PUSH0 PUSH2 0x100 EXP DUP2 SLOAD DUP2 PUSH20 0xFFFFFFFFFFFFFFFFFFFFFFFFFFFFFFFFFFFFFFFF MUL NOT AND SWAP1 DUP4 PUSH20 0xFFFFFFFFFFFFFFFFFFFFFFFFFFFFFFFFFFFFFFFF AND MUL OR SWAP1 SSTORE POP POP POP PUSH3 0x16F JUMP JUMPDEST PUSH0 DUP1 REVERT JUMPDEST PUSH0 PUSH20 0xFFFFFFFFFFFFFFFFFFFFFFFFFFFFFFFFFFFFFFFF DUP3 AND SWAP1 POP SWAP2 SWAP1 POP JUMP JUMPDEST PUSH0 PUSH3 0xF4 DUP3 PUSH3 0xC9 JUMP JUMPDEST SWAP1 POP SWAP2 SWAP1 POP JUMP JUMPDEST PUSH3 0x106 DUP2 PUSH3 0xE8 JUMP JUMPDEST DUP2 EQ PUSH3 0x111 JUMPI PUSH0 DUP1 REVERT JUMPDEST POP JUMP JUMPDEST PUSH0 DUP2 MLOAD SWAP1 POP PUSH3 0x124 DUP2 PUSH3 0xFB JUMP JUMPDEST SWAP3 SWAP2 POP POP JUMP JUMPDEST PUSH0 DUP1 PUSH1 0x40 DUP4 DUP6 SUB SLT ISZERO PUSH3 0x143 JUMPI PUSH3 0x142 PUSH3 0xC5 JUMP JUMPDEST JUMPDEST PUSH0 PUSH3 0x152 DUP6 DUP3 DUP7 ADD PUSH3 0x114 JUMP JUMPDEST SWAP3 POP POP PUSH1 0x20 PUSH3 0x165 DUP6 DUP3 DUP7 ADD PUSH3 0x114 JUMP JUMPDEST SWAP2 POP POP SWAP3 POP SWAP3 SWAP1 POP JUMP JUMPDEST PUSH2 0x1398 DUP1 PUSH3 0x17D PUSH0 CODECOPY PUSH0 RETURN INVALID PUSH1 0x80 PUSH1 0x40 MSTORE CALLVALUE DUP1 ISZERO PUSH2 0xF JUMPI PUSH0 DUP1 REVERT JUMPDEST POP PUSH1 0x4 CALLDATASIZE LT PUSH2 0xCC JUMPI PUSH0 CALLDATALOAD PUSH1 0xE0 SHR DUP1 PUSH4 0x6374CC00 GT PUSH2 0x8A JUMPI DUP1 PUSH4 0xADCA9B72 GT PUSH2 0x64 JUMPI DUP1 PUSH4 0xADCA9B72 EQ PUSH2 0x20E JUMPI DUP1 PUSH4 0xC8F33C91 EQ PUSH2 0x22C JUMPI DUP1 PUSH4 0xCD3DAF9D EQ PUSH2 0x24A JUMPI DUP1 PUSH4 0xDF136D65 EQ PUSH2 0x268 JUMPI PUSH2 0xCC JUMP JUMPDEST DUP1 PUSH4 0x6374CC00 EQ PUSH2 0x1A4 JUMPI DUP1 PUSH4 0x8B876347 EQ PUSH2 0x1C2 JUMPI DUP1 PUSH4 0xA694FC3A EQ PUSH2 0x1F2 JUMPI PUSH2 0xCC JUMP JUMPDEST DUP1 PUSH3 0x8CC262 EQ PUSH2 0xD0 JUMPI DUP1 PUSH4 0x700037D EQ PUSH2 0x100 JUMPI DUP1 PUSH4 0x2E1A7D4D EQ PUSH2 0x130 JUMPI DUP1 PUSH4 0x3D18B912 EQ PUSH2 0x14C JUMPI DUP1 PUSH4 0x5997BB37 EQ PUSH2 0x156 JUMPI DUP1 PUSH4 0x60217267 EQ PUSH2 0x174 JUMPI JUMPDEST PUSH0 DUP1 REVERT JUMPDEST PUSH2 0xEA PUSH1 0x4 DUP1 CALLDATASIZE SUB DUP2 ADD SWAP1 PUSH2 0xE5 SWAP2 SWAP1 PUSH2 0xE29 JUMP JUMPDEST PUSH2 0x286 JUMP JUMPDEST PUSH1 0x40 MLOAD PUSH2 0xF7 SWAP2 SWAP1 PUSH2 0xE6C JUMP JUMPDEST PUSH1 0x40 MLOAD DUP1 SWAP2 SUB SWAP1 RETURN JUMPDEST PUSH2 0x11A PUSH1 0x4 DUP1 CALLDATASIZE SUB DUP2 ADD SWAP1 PUSH2 0x115 SWAP2 SWAP1 PUSH2 0xE29 JUMP JUMPDEST PUSH2 0x383 JUMP JUMPDEST PUSH1 0x40 MLOAD PUSH2 0x127 SWAP2 SWAP1 PUSH2 0xE6C JUMP JUMPDEST PUSH1 0x40 MLOAD DUP1 SWAP2 SUB SWAP1 RETURN JUMPDEST PUSH2 0x14A PUSH1 0x4 DUP1 CALLDATASIZE SUB DUP2 ADD SWAP1 PUSH2 0x145 SWAP2 SWAP1 PUSH2 0xEAF JUMP JUMPDEST PUSH2 0x398 JUMP JUMPDEST STOP JUMPDEST PUSH2 0x154 PUSH2 0x6E2 JUMP JUMPDEST STOP JUMPDEST PUSH2 0x15E PUSH2 0x983 JUMP JUMPDEST PUSH1 0x40 MLOAD PUSH2 0x16B SWAP2 SWAP1 PUSH2 0xE6C JUMP JUMPDEST PUSH1 0x40 MLOAD DUP1 SWAP2 SUB SWAP1 RETURN JUMPDEST PUSH2 0x18E PUSH1 0x4 DUP1 CALLDATASIZE SUB DUP2 ADD SWAP1 PUSH2 0x189 SWAP2 SWAP1 PUSH2 0xE29 JUMP JUMPDEST PUSH2 0x98F JUMP JUMPDEST PUSH1 0x40 MLOAD PUSH2 0x19B SWAP2 SWAP1 PUSH2 0xE6C JUMP JUMPDEST PUSH1 0x40 MLOAD DUP1 SWAP2 SUB SWAP1 RETURN JUMPDEST PUSH2 0x1AC PUSH2 0x9A4 JUMP JUMPDEST PUSH1 0x40 MLOAD PUSH2 0x1B9 SWAP2 SWAP1 PUSH2 0xF35 JUMP JUMPDEST PUSH1 0x40 MLOAD DUP1 SWAP2 SUB SWAP1 RETURN JUMPDEST PUSH2 0x1DC PUSH1 0x4 DUP1 CALLDATASIZE SUB DUP2 ADD SWAP1 PUSH2 0x1D7 SWAP2 SWAP1 PUSH2 0xE29 JUMP JUMPDEST PUSH2 0x9C9 JUMP JUMPDEST PUSH1 0x40 MLOAD PUSH2 0x1E9 SWAP2 SWAP1 PUSH2 0xE6C JUMP JUMPDEST PUSH1 0x40 MLOAD DUP1 SWAP2 SUB SWAP1 RETURN JUMPDEST PUSH2 0x20C PUSH1 0x4 DUP1 CALLDATASIZE SUB DUP2 ADD SWAP1 PUSH2 0x207 SWAP2 SWAP1 PUSH2 0xEAF JUMP JUMPDEST PUSH2 0x9DE JUMP JUMPDEST STOP JUMPDEST PUSH2 0x216 PUSH2 0xC69 JUMP JUMPDEST PUSH1 0x40 MLOAD PUSH2 0x223 SWAP2 SWAP1 PUSH2 0xF35 JUMP JUMPDEST PUSH1 0x40 MLOAD DUP1 SWAP2 SUB SWAP1 RETURN JUMPDEST PUSH2 0x234 PUSH2 0xC8E JUMP JUMPDEST PUSH1 0x40 MLOAD PUSH2 0x241 SWAP2 SWAP1 PUSH2 0xE6C JUMP JUMPDEST PUSH1 0x40 MLOAD DUP1 SWAP2 SUB SWAP1 RETURN JUMPDEST PUSH2 0x252 PUSH2 0xC94 JUMP JUMPDEST PUSH1 0x40 MLOAD PUSH2 0x25F SWAP2 SWAP1 PUSH2 0xE6C JUMP JUMPDEST PUSH1 0x40 MLOAD DUP1 SWAP2 SUB SWAP1 RETURN JUMPDEST PUSH2 0x270 PUSH2 0xD1B JUMP JUMPDEST PUSH1 0x40 MLOAD PUSH2 0x27D SWAP2 SWAP1 PUSH2 0xE6C JUMP JUMPDEST PUSH1 0x40 MLOAD DUP1 SWAP2 SUB SWAP1 RETURN JUMPDEST PUSH0 PUSH2 0x37C PUSH1 0x7 PUSH0 DUP5 PUSH20 0xFFFFFFFFFFFFFFFFFFFFFFFFFFFFFFFFFFFFFFFF AND PUSH20 0xFFFFFFFFFFFFFFFFFFFFFFFFFFFFFFFFFFFFFFFF AND DUP2 MSTORE PUSH1 0x20 ADD SWAP1 DUP2 MSTORE PUSH1 0x20 ADD PUSH0 KECCAK256 SLOAD PUSH2 0x36E PUSH2 0x322 PUSH1 0x8 PUSH0 DUP8 PUSH20 0xFFFFFFFFFFFFFFFFFFFFFFFFFFFFFFFFFFFFFFFF AND PUSH20 0xFFFFFFFFFFFFFFFFFFFFFFFFFFFFFFFFFFFFFFFF AND DUP2 MSTORE PUSH1 0x20 ADD SWAP1 DUP2 MSTORE PUSH1 0x20 ADD PUSH0 KECCAK256 SLOAD PUSH2 0x314 PUSH2 0xC94 JUMP JUMPDEST PUSH2 0xD21 SWAP1 SWAP2 SWAP1 PUSH4 0xFFFFFFFF AND JUMP JUMPDEST PUSH1 0x6 PUSH0 DUP8 PUSH20 0xFFFFFFFFFFFFFFFFFFFFFFFFFFFFFFFFFFFFFFFF AND PUSH20 0xFFFFFFFFFFFFFFFFFFFFFFFFFFFFFFFFFFFFFFFF AND DUP2 MSTORE PUSH1 0x20 ADD SWAP1 DUP2 MSTORE PUSH1 0x20 ADD PUSH0 KECCAK256 SLOAD PUSH2 0xD36 SWAP1 SWAP2 SWAP1 PUSH4 0xFFFFFFFF AND JUMP JUMPDEST PUSH2 0xD4B SWAP1 SWAP2 SWAP1 PUSH4 0xFFFFFFFF AND JUMP JUMPDEST SWAP1 POP SWAP2 SWAP1 POP JUMP JUMPDEST PUSH1 0x7 PUSH1 0x20 MSTORE DUP1 PUSH0 MSTORE PUSH1 0x40 PUSH0 KECCAK256 PUSH0 SWAP2 POP SWAP1 POP SLOAD DUP2 JUMP JUMPDEST PUSH2 0x3A0 PUSH2 0xD60 JUMP JUMPDEST CALLER PUSH2 0x3A9 PUSH2 0xC94 JUMP JUMPDEST PUSH1 0x4 DUP2 SWAP1 SSTORE POP TIMESTAMP PUSH1 0x5 DUP2 SWAP1 SSTORE POP PUSH2 0x3BF DUP2 PUSH2 0x286 JUMP JUMPDEST PUSH1 0x7 PUSH0 DUP4 PUSH20 0xFFFFFFFFFFFFFFFFFFFFFFFFFFFFFFFFFFFFFFFF AND PUSH20 0xFFFFFFFFFFFFFFFFFFFFFFFFFFFFFFFFFFFFFFFF AND DUP2 MSTORE PUSH1 0x20 ADD SWAP1 DUP2 MSTORE PUSH1 0x20 ADD PUSH0 KECCAK256 DUP2 SWAP1 SSTORE POP PUSH1 0x4 SLOAD PUSH1 0x8 PUSH0 DUP4 PUSH20 0xFFFFFFFFFFFFFFFFFFFFFFFFFFFFFFFFFFFFFFFF AND PUSH20 0xFFFFFFFFFFFFFFFFFFFFFFFFFFFFFFFFFFFFFFFF AND DUP2 MSTORE PUSH1 0x20 ADD SWAP1 DUP2 MSTORE PUSH1 0x20 ADD PUSH0 KECCAK256 DUP2 SWAP1 SSTORE POP PUSH0 DUP3 GT PUSH2 0x486 JUMPI PUSH1 0x40 MLOAD PUSH32 0x8C379A000000000000000000000000000000000000000000000000000000000 DUP2 MSTORE PUSH1 0x4 ADD PUSH2 0x47D SWAP1 PUSH2 0xFA8 JUMP JUMPDEST PUSH1 0x40 MLOAD DUP1 SWAP2 SUB SWAP1 REVERT JUMPDEST DUP2 PUSH1 0x6 PUSH0 CALLER PUSH20 0xFFFFFFFFFFFFFFFFFFFFFFFFFFFFFFFFFFFFFFFF AND PUSH20 0xFFFFFFFFFFFFFFFFFFFFFFFFFFFFFFFFFFFFFFFF AND DUP2 MSTORE PUSH1 0x20 ADD SWAP1 DUP2 MSTORE PUSH1 0x20 ADD PUSH0 KECCAK256 SLOAD LT ISZERO PUSH2 0x506 JUMPI PUSH1 0x40 MLOAD PUSH32 0x8C379A000000000000000000000000000000000000000000000000000000000 DUP2 MSTORE PUSH1 0x4 ADD PUSH2 0x4FD SWAP1 PUSH2 0x1010 JUMP JUMPDEST PUSH1 0x40 MLOAD DUP1 SWAP2 SUB SWAP1 REVERT JUMPDEST PUSH2 0x51B DUP3 PUSH1 0x3 SLOAD PUSH2 0xD21 SWAP1 SWAP2 SWAP1 PUSH4 0xFFFFFFFF AND JUMP JUMPDEST PUSH1 0x3 DUP2 SWAP1 SSTORE POP PUSH2 0x571 DUP3 PUSH1 0x6 PUSH0 CALLER PUSH20 0xFFFFFFFFFFFFFFFFFFFFFFFFFFFFFFFFFFFFFFFF AND PUSH20 0xFFFFFFFFFFFFFFFFFFFFFFFFFFFFFFFFFFFFFFFF AND DUP2 MSTORE PUSH1 0x20 ADD SWAP1 DUP2 MSTORE PUSH1 0x20 ADD PUSH0 KECCAK256 SLOAD PUSH2 0xD21 SWAP1 SWAP2 SWAP1 PUSH4 0xFFFFFFFF AND JUMP JUMPDEST PUSH1 0x6 PUSH0 CALLER PUSH20 0xFFFFFFFFFFFFFFFFFFFFFFFFFFFFFFFFFFFFFFFF AND PUSH20 0xFFFFFFFFFFFFFFFFFFFFFFFFFFFFFFFFFFFFFFFF AND DUP2 MSTORE PUSH1 0x20 ADD SWAP1 DUP2 MSTORE PUSH1 0x20 ADD PUSH0 KECCAK256 DUP2 SWAP1 SSTORE POP DUP2 CALLER PUSH20 0xFFFFFFFFFFFFFFFFFFFFFFFFFFFFFFFFFFFFFFFF AND PUSH32 0x7084F5476618D8E60B11EF0D7D3F06914655ADB8793E28FF7F018D4C76D505D5 PUSH1 0x40 MLOAD PUSH1 0x40 MLOAD DUP1 SWAP2 SUB SWAP1 LOG3 PUSH0 PUSH1 0x1 PUSH0 SWAP1 SLOAD SWAP1 PUSH2 0x100 EXP SWAP1 DIV PUSH20 0xFFFFFFFFFFFFFFFFFFFFFFFFFFFFFFFFFFFFFFFF AND PUSH20 0xFFFFFFFFFFFFFFFFFFFFFFFFFFFFFFFFFFFFFFFF AND PUSH4 0xA9059CBB CALLER DUP6 PUSH1 0x40 MLOAD DUP4 PUSH4 0xFFFFFFFF AND PUSH1 0xE0 SHL DUP2 MSTORE PUSH1 0x4 ADD PUSH2 0x653 SWAP3 SWAP2 SWAP1 PUSH2 0x103D JUMP JUMPDEST PUSH1 0x20 PUSH1 0x40 MLOAD DUP1 DUP4 SUB DUP2 PUSH0 DUP8 GAS CALL ISZERO DUP1 ISZERO PUSH2 0x66F JUMPI RETURNDATASIZE PUSH0 DUP1 RETURNDATACOPY RETURNDATASIZE PUSH0 REVERT JUMPDEST POP POP POP POP PUSH1 0x40 MLOAD RETURNDATASIZE PUSH1 0x1F NOT PUSH1 0x1F DUP3 ADD AND DUP3 ADD DUP1 PUSH1 0x40 MSTORE POP DUP2 ADD SWAP1 PUSH2 0x693 SWAP2 SWAP1 PUSH2 0x1099 JUMP JUMPDEST SWAP1 POP DUP1 PUSH2 0x6D5 JUMPI PUSH1 0x40 MLOAD PUSH32 0x8C379A000000000000000000000000000000000000000000000000000000000 DUP2 MSTORE PUSH1 0x4 ADD PUSH2 0x6CC SWAP1 PUSH2 0x110E JUMP JUMPDEST PUSH1 0x40 MLOAD DUP1 SWAP2 SUB SWAP1 REVERT JUMPDEST POP POP PUSH2 0x6DF PUSH2 0xDAD JUMP JUMPDEST POP JUMP JUMPDEST PUSH2 0x6EA PUSH2 0xD60 JUMP JUMPDEST CALLER PUSH2 0x6F3 PUSH2 0xC94 JUMP JUMPDEST PUSH1 0x4 DUP2 SWAP1 SSTORE POP TIMESTAMP PUSH1 0x5 DUP2 SWAP1 SSTORE POP PUSH2 0x709 DUP2 PUSH2 0x286 JUMP JUMPDEST PUSH1 0x7 PUSH0 DUP4 PUSH20 0xFFFFFFFFFFFFFFFFFFFFFFFFFFFFFFFFFFFFFFFF AND PUSH20 0xFFFFFFFFFFFFFFFFFFFFFFFFFFFFFFFFFFFFFFFF AND DUP2 MSTORE PUSH1 0x20 ADD SWAP1 DUP2 MSTORE PUSH1 0x20 ADD PUSH0 KECCAK256 DUP2 SWAP1 SSTORE POP PUSH1 0x4 SLOAD PUSH1 0x8 PUSH0 DUP4 PUSH20 0xFFFFFFFFFFFFFFFFFFFFFFFFFFFFFFFFFFFFFFFF AND PUSH20 0xFFFFFFFFFFFFFFFFFFFFFFFFFFFFFFFFFFFFFFFF AND DUP2 MSTORE PUSH1 0x20 ADD SWAP1 DUP2 MSTORE PUSH1 0x20 ADD PUSH0 KECCAK256 DUP2 SWAP1 SSTORE POP PUSH0 PUSH1 0x7 PUSH0 CALLER PUSH20 0xFFFFFFFFFFFFFFFFFFFFFFFFFFFFFFFFFFFFFFFF AND PUSH20 0xFFFFFFFFFFFFFFFFFFFFFFFFFFFFFFFFFFFFFFFF AND DUP2 MSTORE PUSH1 0x20 ADD SWAP1 DUP2 MSTORE PUSH1 0x20 ADD PUSH0 KECCAK256 SLOAD SWAP1 POP PUSH0 DUP2 GT PUSH2 0x811 JUMPI PUSH1 0x40 MLOAD PUSH32 0x8C379A000000000000000000000000000000000000000000000000000000000 DUP2 MSTORE PUSH1 0x4 ADD PUSH2 0x808 SWAP1 PUSH2 0x1176 JUMP JUMPDEST PUSH1 0x40 MLOAD DUP1 SWAP2 SUB SWAP1 REVERT JUMPDEST PUSH0 PUSH1 0x7 PUSH0 CALLER PUSH20 0xFFFFFFFFFFFFFFFFFFFFFFFFFFFFFFFFFFFFFFFF AND PUSH20 0xFFFFFFFFFFFFFFFFFFFFFFFFFFFFFFFFFFFFFFFF AND DUP2 MSTORE PUSH1 0x20 ADD SWAP1 DUP2 MSTORE PUSH1 0x20 ADD PUSH0 KECCAK256 DUP2 SWAP1 SSTORE POP DUP1 CALLER PUSH20 0xFFFFFFFFFFFFFFFFFFFFFFFFFFFFFFFFFFFFFFFF AND PUSH32 0xFC30CDDEA38E2BF4D6EA7D3F9ED3B6AD7F176419F4963BD81318067A4AEE73FE PUSH1 0x40 MLOAD PUSH1 0x40 MLOAD DUP1 SWAP2 SUB SWAP1 LOG3 PUSH0 PUSH1 0x2 PUSH0 SWAP1 SLOAD SWAP1 PUSH2 0x100 EXP SWAP1 DIV PUSH20 0xFFFFFFFFFFFFFFFFFFFFFFFFFFFFFFFFFFFFFFFF AND PUSH20 0xFFFFFFFFFFFFFFFFFFFFFFFFFFFFFFFFFFFFFFFF AND PUSH4 0xA9059CBB CALLER DUP5 PUSH1 0x40 MLOAD DUP4 PUSH4 0xFFFFFFFF AND PUSH1 0xE0 SHL DUP2 MSTORE PUSH1 0x4 ADD PUSH2 0x8F4 SWAP3 SWAP2 SWAP1 PUSH2 0x103D JUMP JUMPDEST PUSH1 0x20 PUSH1 0x40 MLOAD DUP1 DUP4 SUB DUP2 PUSH0 DUP8 GAS CALL ISZERO DUP1 ISZERO PUSH2 0x910 JUMPI RETURNDATASIZE PUSH0 DUP1 RETURNDATACOPY RETURNDATASIZE PUSH0 REVERT JUMPDEST POP POP POP POP PUSH1 0x40 MLOAD RETURNDATASIZE PUSH1 0x1F NOT PUSH1 0x1F DUP3 ADD AND DUP3 ADD DUP1 PUSH1 0x40 MSTORE POP DUP2 ADD SWAP1 PUSH2 0x934 SWAP2 SWAP1 PUSH2 0x1099 JUMP JUMPDEST SWAP1 POP DUP1 PUSH2 0x976 JUMPI PUSH1 0x40 MLOAD PUSH32 0x8C379A000000000000000000000000000000000000000000000000000000000 DUP2 MSTORE PUSH1 0x4 ADD PUSH2 0x96D SWAP1 PUSH2 0x110E JUMP JUMPDEST PUSH1 0x40 MLOAD DUP1 SWAP2 SUB SWAP1 REVERT JUMPDEST POP POP POP PUSH2 0x981 PUSH2 0xDAD JUMP JUMPDEST JUMP JUMPDEST PUSH8 0xDE0B6B3A7640000 DUP2 JUMP JUMPDEST PUSH1 0x6 PUSH1 0x20 MSTORE DUP1 PUSH0 MSTORE PUSH1 0x40 PUSH0 KECCAK256 PUSH0 SWAP2 POP SWAP1 POP SLOAD DUP2 JUMP JUMPDEST PUSH1 0x2 PUSH0 SWAP1 SLOAD SWAP1 PUSH2 0x100 EXP SWAP1 DIV PUSH20 0xFFFFFFFFFFFFFFFFFFFFFFFFFFFFFFFFFFFFFFFF AND DUP2 JUMP JUMPDEST PUSH1 0x8 PUSH1 0x20 MSTORE DUP1 PUSH0 MSTORE PUSH1 0x40 PUSH0 KECCAK256 PUSH0 SWAP2 POP SWAP1 POP SLOAD DUP2 JUMP JUMPDEST PUSH2 0x9E6 PUSH2 0xD60 JUMP JUMPDEST CALLER PUSH2 0x9EF PUSH2 0xC94 JUMP JUMPDEST PUSH1 0x4 DUP2 SWAP1 SSTORE POP TIMESTAMP PUSH1 0x5 DUP2 SWAP1 SSTORE POP PUSH2 0xA05 DUP2 PUSH2 0x286 JUMP JUMPDEST PUSH1 0x7 PUSH0 DUP4 PUSH20 0xFFFFFFFFFFFFFFFFFFFFFFFFFFFFFFFFFFFFFFFF AND PUSH20 0xFFFFFFFFFFFFFFFFFFFFFFFFFFFFFFFFFFFFFFFF AND DUP2 MSTORE PUSH1 0x20 ADD SWAP1 DUP2 MSTORE PUSH1 0x20 ADD PUSH0 KECCAK256 DUP2 SWAP1 SSTORE POP PUSH1 0x4 SLOAD PUSH1 0x8 PUSH0 DUP4 PUSH20 0xFFFFFFFFFFFFFFFFFFFFFFFFFFFFFFFFFFFFFFFF AND PUSH20 0xFFFFFFFFFFFFFFFFFFFFFFFFFFFFFFFFFFFFFFFF AND DUP2 MSTORE PUSH1 0x20 ADD SWAP1 DUP2 MSTORE PUSH1 0x20 ADD PUSH0 KECCAK256 DUP2 SWAP1 SSTORE POP PUSH0 DUP3 GT PUSH2 0xACC JUMPI PUSH1 0x40 MLOAD PUSH32 0x8C379A000000000000000000000000000000000000000000000000000000000 DUP2 MSTORE PUSH1 0x4 ADD PUSH2 0xAC3 SWAP1 PUSH2 0xFA8 JUMP JUMPDEST PUSH1 0x40 MLOAD DUP1 SWAP2 SUB SWAP1 REVERT JUMPDEST DUP2 PUSH1 0x3 PUSH0 DUP3 DUP3 SLOAD PUSH2 0xADD SWAP2 SWAP1 PUSH2 0x11C1 JUMP JUMPDEST SWAP3 POP POP DUP2 SWAP1 SSTORE POP DUP2 PUSH1 0x6 PUSH0 CALLER PUSH20 0xFFFFFFFFFFFFFFFFFFFFFFFFFFFFFFFFFFFFFFFF AND PUSH20 0xFFFFFFFFFFFFFFFFFFFFFFFFFFFFFFFFFFFFFFFF AND DUP2 MSTORE PUSH1 0x20 ADD SWAP1 DUP2 MSTORE PUSH1 0x20 ADD PUSH0 KECCAK256 PUSH0 DUP3 DUP3 SLOAD PUSH2 0xB30 SWAP2 SWAP1 PUSH2 0x11C1 JUMP JUMPDEST SWAP3 POP POP DUP2 SWAP1 SSTORE POP DUP2 CALLER PUSH20 0xFFFFFFFFFFFFFFFFFFFFFFFFFFFFFFFFFFFFFFFF AND PUSH32 0x9E71BC8EEA02A63969F509818F2DAFB9254532904319F9DBDA79B67BD34A5F3D PUSH1 0x40 MLOAD PUSH1 0x40 MLOAD DUP1 SWAP2 SUB SWAP1 LOG3 PUSH0 PUSH1 0x1 PUSH0 SWAP1 SLOAD SWAP1 PUSH2 0x100 EXP SWAP1 DIV PUSH20 0xFFFFFFFFFFFFFFFFFFFFFFFFFFFFFFFFFFFFFFFF AND PUSH20 0xFFFFFFFFFFFFFFFFFFFFFFFFFFFFFFFFFFFFFFFF AND PUSH4 0x23B872DD CALLER ADDRESS DUP7 PUSH1 0x40 MLOAD DUP5 PUSH4 0xFFFFFFFF AND PUSH1 0xE0 SHL DUP2 MSTORE PUSH1 0x4 ADD PUSH2 0xBDA SWAP4 SWAP3 SWAP2 SWAP1 PUSH2 0x11F4 JUMP JUMPDEST PUSH1 0x20 PUSH1 0x40 MLOAD DUP1 DUP4 SUB DUP2 PUSH0 DUP8 GAS CALL ISZERO DUP1 ISZERO PUSH2 0xBF6 JUMPI RETURNDATASIZE PUSH0 DUP1 RETURNDATACOPY RETURNDATASIZE PUSH0 REVERT JUMPDEST POP POP POP POP PUSH1 0x40 MLOAD RETURNDATASIZE PUSH1 0x1F NOT PUSH1 0x1F DUP3 ADD AND DUP3 ADD DUP1 PUSH1 0x40 MSTORE POP DUP2 ADD SWAP1 PUSH2 0xC1A SWAP2 SWAP1 PUSH2 0x1099 JUMP JUMPDEST SWAP1 POP DUP1 PUSH2 0xC5C JUMPI PUSH1 0x40 MLOAD PUSH32 0x8C379A000000000000000000000000000000000000000000000000000000000 DUP2 MSTORE PUSH1 0x4 ADD PUSH2 0xC53 SWAP1 PUSH2 0x110E JUMP JUMPDEST PUSH1 0x40 MLOAD DUP1 SWAP2 SUB SWAP1 REVERT JUMPDEST POP POP PUSH2 0xC66 PUSH2 0xDAD JUMP JUMPDEST POP JUMP JUMPDEST PUSH1 0x1 PUSH0 SWAP1 SLOAD SWAP1 PUSH2 0x100 EXP SWAP1 DIV PUSH20 0xFFFFFFFFFFFFFFFFFFFFFFFFFFFFFFFFFFFFFFFF AND DUP2 JUMP JUMPDEST PUSH1 0x5 SLOAD DUP2 JUMP JUMPDEST PUSH0 DUP1 PUSH1 0x3 SLOAD SUB PUSH2 0xCA8 JUMPI PUSH1 0x4 SLOAD SWAP1 POP PUSH2 0xD18 JUMP JUMPDEST PUSH0 PUSH1 0x5 SLOAD TIMESTAMP PUSH2 0xCB7 SWAP2 SWAP1 PUSH2 0x1229 JUMP JUMPDEST SWAP1 POP PUSH0 DUP2 PUSH8 0xDE0B6B3A7640000 PUSH2 0xCCE SWAP2 SWAP1 PUSH2 0x125C JUMP JUMPDEST SWAP1 POP PUSH2 0xD13 PUSH2 0xD02 PUSH1 0x3 SLOAD PUSH2 0xCF4 PUSH8 0xDE0B6B3A7640000 DUP6 PUSH2 0xD36 SWAP1 SWAP2 SWAP1 PUSH4 0xFFFFFFFF AND JUMP JUMPDEST PUSH2 0xDB6 SWAP1 SWAP2 SWAP1 PUSH4 0xFFFFFFFF AND JUMP JUMPDEST PUSH1 0x4 SLOAD PUSH2 0xD4B SWAP1 SWAP2 SWAP1 PUSH4 0xFFFFFFFF AND JUMP JUMPDEST SWAP3 POP POP POP JUMPDEST SWAP1 JUMP JUMPDEST PUSH1 0x4 SLOAD DUP2 JUMP JUMPDEST PUSH0 DUP2 DUP4 PUSH2 0xD2E SWAP2 SWAP1 PUSH2 0x1229 JUMP JUMPDEST SWAP1 POP SWAP3 SWAP2 POP POP JUMP JUMPDEST PUSH0 DUP2 DUP4 PUSH2 0xD43 SWAP2 SWAP1 PUSH2 0x125C JUMP JUMPDEST SWAP1 POP SWAP3 SWAP2 POP POP JUMP JUMPDEST PUSH0 DUP2 DUP4 PUSH2 0xD58 SWAP2 SWAP1 PUSH2 0x11C1 JUMP JUMPDEST SWAP1 POP SWAP3 SWAP2 POP POP JUMP JUMPDEST PUSH1 0x2 PUSH0 SLOAD SUB PUSH2 0xDA4 JUMPI PUSH1 0x40 MLOAD PUSH32 0x8C379A000000000000000000000000000000000000000000000000000000000 DUP2 MSTORE PUSH1 0x4 ADD PUSH2 0xD9B SWAP1 PUSH2 0x12E7 JUMP JUMPDEST PUSH1 0x40 MLOAD DUP1 SWAP2 SUB SWAP1 REVERT JUMPDEST PUSH1 0x2 PUSH0 DUP2 SWAP1 SSTORE POP JUMP JUMPDEST PUSH1 0x1 PUSH0 DUP2 SWAP1 SSTORE POP JUMP JUMPDEST PUSH0 DUP2 DUP4 PUSH2 0xDC3 SWAP2 SWAP1 PUSH2 0x1332 JUMP JUMPDEST SWAP1 POP SWAP3 SWAP2 POP POP JUMP JUMPDEST PUSH0 DUP1 REVERT JUMPDEST PUSH0 PUSH20 0xFFFFFFFFFFFFFFFFFFFFFFFFFFFFFFFFFFFFFFFF DUP3 AND SWAP1 POP SWAP2 SWAP1 POP JUMP JUMPDEST PUSH0 PUSH2 0xDF8 DUP3 PUSH2 0xDCF JUMP JUMPDEST SWAP1 POP SWAP2 SWAP1 POP JUMP JUMPDEST PUSH2 0xE08 DUP2 PUSH2 0xDEE JUMP JUMPDEST DUP2 EQ PUSH2 0xE12 JUMPI PUSH0 DUP1 REVERT JUMPDEST POP JUMP JUMPDEST PUSH0 DUP2 CALLDATALOAD SWAP1 POP PUSH2 0xE23 DUP2 PUSH2 0xDFF JUMP JUMPDEST SWAP3 SWAP2 POP POP JUMP JUMPDEST PUSH0 PUSH1 0x20 DUP3 DUP5 SUB SLT ISZERO PUSH2 0xE3E JUMPI PUSH2 0xE3D PUSH2 0xDCB JUMP JUMPDEST JUMPDEST PUSH0 PUSH2 0xE4B DUP5 DUP3 DUP6 ADD PUSH2 0xE15 JUMP JUMPDEST SWAP2 POP POP SWAP3 SWAP2 POP POP JUMP JUMPDEST PUSH0 DUP2 SWAP1 POP SWAP2 SWAP1 POP JUMP JUMPDEST PUSH2 0xE66 DUP2 PUSH2 0xE54 JUMP JUMPDEST DUP3 MSTORE POP POP JUMP JUMPDEST PUSH0 PUSH1 0x20 DUP3 ADD SWAP1 POP PUSH2 0xE7F PUSH0 DUP4 ADD DUP5 PUSH2 0xE5D JUMP JUMPDEST SWAP3 SWAP2 POP POP JUMP JUMPDEST PUSH2 0xE8E DUP2 PUSH2 0xE54 JUMP JUMPDEST DUP2 EQ PUSH2 0xE98 JUMPI PUSH0 DUP1 REVERT JUMPDEST POP JUMP JUMPDEST PUSH0 DUP2 CALLDATALOAD SWAP1 POP PUSH2 0xEA9 DUP2 PUSH2 0xE85 JUMP JUMPDEST SWAP3 SWAP2 POP POP JUMP JUMPDEST PUSH0 PUSH1 0x20 DUP3 DUP5 SUB SLT ISZERO PUSH2 0xEC4 JUMPI PUSH2 0xEC3 PUSH2 0xDCB JUMP JUMPDEST JUMPDEST PUSH0 PUSH2 0xED1 DUP5 DUP3 DUP6 ADD PUSH2 0xE9B JUMP JUMPDEST SWAP2 POP POP SWAP3 SWAP2 POP POP JUMP JUMPDEST PUSH0 DUP2 SWAP1 POP SWAP2 SWAP1 POP JUMP JUMPDEST PUSH0 PUSH2 0xEFD PUSH2 0xEF8 PUSH2 0xEF3 DUP5 PUSH2 0xDCF JUMP JUMPDEST PUSH2 0xEDA JUMP JUMPDEST PUSH2 0xDCF JUMP JUMPDEST SWAP1 POP SWAP2 SWAP1 POP JUMP JUMPDEST PUSH0 PUSH2 0xF0E DUP3 PUSH2 0xEE3 JUMP JUMPDEST SWAP1 POP SWAP2 SWAP1 POP JUMP JUMPDEST PUSH0 PUSH2 0xF1F DUP3 PUSH2 0xF04 JUMP JUMPDEST SWAP1 POP SWAP2 SWAP1 POP JUMP JUMPDEST PUSH2 0xF2F DUP2 PUSH2 0xF15 JUMP JUMPDEST DUP3 MSTORE POP POP JUMP JUMPDEST PUSH0 PUSH1 0x20 DUP3 ADD SWAP1 POP PUSH2 0xF48 PUSH0 DUP4 ADD DUP5 PUSH2 0xF26 JUMP JUMPDEST SWAP3 SWAP2 POP POP JUMP JUMPDEST PUSH0 DUP3 DUP3 MSTORE PUSH1 0x20 DUP3 ADD SWAP1 POP SWAP3 SWAP2 POP POP JUMP JUMPDEST PUSH32 0x416D6F756E74206D7573742062652067726561746572207468616E207A65726F PUSH0 DUP3 ADD MSTORE POP JUMP JUMPDEST PUSH0 PUSH2 0xF92 PUSH1 0x20 DUP4 PUSH2 0xF4E JUMP JUMPDEST SWAP2 POP PUSH2 0xF9D DUP3 PUSH2 0xF5E JUMP JUMPDEST PUSH1 0x20 DUP3 ADD SWAP1 POP SWAP2 SWAP1 POP JUMP JUMPDEST PUSH0 PUSH1 0x20 DUP3 ADD SWAP1 POP DUP2 DUP2 SUB PUSH0 DUP4 ADD MSTORE PUSH2 0xFBF DUP2 PUSH2 0xF86 JUMP JUMPDEST SWAP1 POP SWAP2 SWAP1 POP JUMP JUMPDEST PUSH32 0x5374616B656420616D6F756E74206E6F7420656E6F7567680000000000000000 PUSH0 DUP3 ADD MSTORE POP JUMP JUMPDEST PUSH0 PUSH2 0xFFA PUSH1 0x18 DUP4 PUSH2 0xF4E JUMP JUMPDEST SWAP2 POP PUSH2 0x1005 DUP3 PUSH2 0xFC6 JUMP JUMPDEST PUSH1 0x20 DUP3 ADD SWAP1 POP SWAP2 SWAP1 POP JUMP JUMPDEST PUSH0 PUSH1 0x20 DUP3 ADD SWAP1 POP DUP2 DUP2 SUB PUSH0 DUP4 ADD MSTORE PUSH2 0x1027 DUP2 PUSH2 0xFEE JUMP JUMPDEST SWAP1 POP SWAP2 SWAP1 POP JUMP JUMPDEST PUSH2 0x1037 DUP2 PUSH2 0xDEE JUMP JUMPDEST DUP3 MSTORE POP POP JUMP JUMPDEST PUSH0 PUSH1 0x40 DUP3 ADD SWAP1 POP PUSH2 0x1050 PUSH0 DUP4 ADD DUP6 PUSH2 0x102E JUMP JUMPDEST PUSH2 0x105D PUSH1 0x20 DUP4 ADD DUP5 PUSH2 0xE5D JUMP JUMPDEST SWAP4 SWAP3 POP POP POP JUMP JUMPDEST PUSH0 DUP2 ISZERO ISZERO SWAP1 POP SWAP2 SWAP1 POP JUMP JUMPDEST PUSH2 0x1078 DUP2 PUSH2 0x1064 JUMP JUMPDEST DUP2 EQ PUSH2 0x1082 JUMPI PUSH0 DUP1 REVERT JUMPDEST POP JUMP JUMPDEST PUSH0 DUP2 MLOAD SWAP1 POP PUSH2 0x1093 DUP2 PUSH2 0x106F JUMP JUMPDEST SWAP3 SWAP2 POP POP JUMP JUMPDEST PUSH0 PUSH1 0x20 DUP3 DUP5 SUB SLT ISZERO PUSH2 0x10AE JUMPI PUSH2 0x10AD PUSH2 0xDCB JUMP JUMPDEST JUMPDEST PUSH0 PUSH2 0x10BB DUP5 DUP3 DUP6 ADD PUSH2 0x1085 JUMP JUMPDEST SWAP2 POP POP SWAP3 SWAP2 POP POP JUMP JUMPDEST PUSH32 0x5472616E73666572204661696C65640000000000000000000000000000000000 PUSH0 DUP3 ADD MSTORE POP JUMP JUMPDEST PUSH0 PUSH2 0x10F8 PUSH1 0xF DUP4 PUSH2 0xF4E JUMP JUMPDEST SWAP2 POP PUSH2 0x1103 DUP3 PUSH2 0x10C4 JUMP JUMPDEST PUSH1 0x20 DUP3 ADD SWAP1 POP SWAP2 SWAP1 POP JUMP JUMPDEST PUSH0 PUSH1 0x20 DUP3 ADD SWAP1 POP DUP2 DUP2 SUB PUSH0 DUP4 ADD MSTORE PUSH2 0x1125 DUP2 PUSH2 0x10EC JUMP JUMPDEST SWAP1 POP SWAP2 SWAP1 POP JUMP JUMPDEST PUSH32 0x4E6F205265776172647320746F20436C61696D00000000000000000000000000 PUSH0 DUP3 ADD MSTORE POP JUMP JUMPDEST PUSH0 PUSH2 0x1160 PUSH1 0x13 DUP4 PUSH2 0xF4E JUMP JUMPDEST SWAP2 POP PUSH2 0x116B DUP3 PUSH2 0x112C JUMP JUMPDEST PUSH1 0x20 DUP3 ADD SWAP1 POP SWAP2 SWAP1 POP JUMP JUMPDEST PUSH0 PUSH1 0x20 DUP3 ADD SWAP1 POP DUP2 DUP2 SUB PUSH0 DUP4 ADD MSTORE PUSH2 0x118D DUP2 PUSH2 0x1154 JUMP JUMPDEST SWAP1 POP SWAP2 SWAP1 POP JUMP JUMPDEST PUSH32 0x4E487B7100000000000000000000000000000000000000000000000000000000 PUSH0 MSTORE PUSH1 0x11 PUSH1 0x4 MSTORE PUSH1 0x24 PUSH0 REVERT JUMPDEST PUSH0 PUSH2 0x11CB DUP3 PUSH2 0xE54 JUMP JUMPDEST SWAP2 POP PUSH2 0x11D6 DUP4 PUSH2 0xE54 JUMP JUMPDEST SWAP3 POP DUP3 DUP3 ADD SWAP1 POP DUP1 DUP3 GT ISZERO PUSH2 0x11EE JUMPI PUSH2 0x11ED PUSH2 0x1194 JUMP JUMPDEST JUMPDEST SWAP3 SWAP2 POP POP JUMP JUMPDEST PUSH0 PUSH1 0x60 DUP3 ADD SWAP1 POP PUSH2 0x1207 PUSH0 DUP4 ADD DUP7 PUSH2 0x102E JUMP JUMPDEST PUSH2 0x1214 PUSH1 0x20 DUP4 ADD DUP6 PUSH2 0x102E JUMP JUMPDEST PUSH2 0x1221 PUSH1 0x40 DUP4 ADD DUP5 PUSH2 0xE5D JUMP JUMPDEST SWAP5 SWAP4 POP POP POP POP JUMP JUMPDEST PUSH0 PUSH2 0x1233 DUP3 PUSH2 0xE54 JUMP JUMPDEST SWAP2 POP PUSH2 0x123E DUP4 PUSH2 0xE54 JUMP JUMPDEST SWAP3 POP DUP3 DUP3 SUB SWAP1 POP DUP2 DUP2 GT ISZERO PUSH2 0x1256 JUMPI PUSH2 0x1255 PUSH2 0x1194 JUMP JUMPDEST JUMPDEST SWAP3 SWAP2 POP POP JUMP JUMPDEST PUSH0 PUSH2 0x1266 DUP3 PUSH2 0xE54 JUMP JUMPDEST SWAP2 POP PUSH2 0x1271 DUP4 PUSH2 0xE54 JUMP JUMPDEST SWAP3 POP DUP3 DUP3 MUL PUSH2 0x127F DUP2 PUSH2 0xE54 JUMP JUMPDEST SWAP2 POP DUP3 DUP3 DIV DUP5 EQ DUP4 ISZERO OR PUSH2 0x1296 JUMPI PUSH2 0x1295 PUSH2 0x1194 JUMP JUMPDEST JUMPDEST POP SWAP3 SWAP2 POP POP JUMP JUMPDEST PUSH32 0x5265656E7472616E637947756172643A207265656E7472616E742063616C6C00 PUSH0 DUP3 ADD MSTORE POP JUMP JUMPDEST PUSH0 PUSH2 0x12D1 PUSH1 0x1F DUP4 PUSH2 0xF4E JUMP JUMPDEST SWAP2 POP PUSH2 0x12DC DUP3 PUSH2 0x129D JUMP JUMPDEST PUSH1 0x20 DUP3 ADD SWAP1 POP SWAP2 SWAP1 POP JUMP JUMPDEST PUSH0 PUSH1 0x20 DUP3 ADD SWAP1 POP DUP2 DUP2 SUB PUSH0 DUP4 ADD MSTORE PUSH2 0x12FE DUP2 PUSH2 0x12C5 JUMP JUMPDEST SWAP1 POP SWAP2 SWAP1 POP JUMP JUMPDEST PUSH32 0x4E487B7100000000000000000000000000000000000000000000000000000000 PUSH0 MSTORE PUSH1 0x12 PUSH1 0x4 MSTORE PUSH1 0x24 PUSH0 REVERT JUMPDEST PUSH0 PUSH2 0x133C DUP3 PUSH2 0xE54 JUMP JUMPDEST SWAP2 POP PUSH2 0x1347 DUP4 PUSH2 0xE54 JUMP JUMPDEST SWAP3 POP DUP3 PUSH2 0x1357 JUMPI PUSH2 0x1356 PUSH2 0x1305 JUMP JUMPDEST JUMPDEST DUP3 DUP3 DIV SWAP1 POP SWAP3 SWAP2 POP POP JUMP INVALID LOG2 PUSH5 0x6970667358 0x22 SLT KECCAK256 0xBE STOP 0x27 DUP1 PUSH21 0xF701399AE2CBA97CF7825AEEFDA448A406D143F190 PUSH7 0x3218572F526473 PUSH16 0x6C634300081600330000000000000000 "
				},
				"gasEstimates": {
					"creation": {
						"codeDepositCost": "1003200",
						"executionCost": "infinite",
						"totalCost": "infinite"
					},
					"external": {
						"REWARD_RATE()": "414",
						"earned(address)": "infinite",
						"getReward()": "infinite",
						"lastUpdateTime()": "2469",
						"rewardPerToken()": "infinite",
						"rewardPerTokenStored()": "2513",
						"rewards(address)": "2825",
						"s_rewardToken()": "infinite",
						"s_stakingToken()": "infinite",
						"stake(uint256)": "infinite",
						"stakedBalance(address)": "2913",
						"userRewardPerTokenPaid(address)": "2847",
						"withdraw(uint256)": "infinite"
					}
				},
				"methodIdentifiers": {
					"REWARD_RATE()": "5997bb37",
					"earned(address)": "008cc262",
					"getReward()": "3d18b912",
					"lastUpdateTime()": "c8f33c91",
					"rewardPerToken()": "cd3daf9d",
					"rewardPerTokenStored()": "df136d65",
					"rewards(address)": "0700037d",
					"s_rewardToken()": "6374cc00",
					"s_stakingToken()": "adca9b72",
					"stake(uint256)": "a694fc3a",
					"stakedBalance(address)": "60217267",
					"userRewardPerTokenPaid(address)": "8b876347",
					"withdraw(uint256)": "2e1a7d4d"
				}
			},
			"storageLayout": {
				"storage": [
					{
						"astId": 10,
						"contract": "contracts/Staking.sol:Staking",
						"label": "_status",
						"offset": 0,
						"slot": "0",
						"type": "t_uint256"
					},
					{
						"astId": 467,
						"contract": "contracts/Staking.sol:Staking",
						"label": "s_stakingToken",
						"offset": 0,
						"slot": "1",
						"type": "t_contract(IERC20)142"
					},
					{
						"astId": 470,
						"contract": "contracts/Staking.sol:Staking",
						"label": "s_rewardToken",
						"offset": 0,
						"slot": "2",
						"type": "t_contract(IERC20)142"
					},
					{
						"astId": 475,
						"contract": "contracts/Staking.sol:Staking",
						"label": "totalStakedTokens",
						"offset": 0,
						"slot": "3",
						"type": "t_uint256"
					},
					{
						"astId": 477,
						"contract": "contracts/Staking.sol:Staking",
						"label": "rewardPerTokenStored",
						"offset": 0,
						"slot": "4",
						"type": "t_uint256"
					},
					{
						"astId": 479,
						"contract": "contracts/Staking.sol:Staking",
						"label": "lastUpdateTime",
						"offset": 0,
						"slot": "5",
						"type": "t_uint256"
					},
					{
						"astId": 483,
						"contract": "contracts/Staking.sol:Staking",
						"label": "stakedBalance",
						"offset": 0,
						"slot": "6",
						"type": "t_mapping(t_address,t_uint256)"
					},
					{
						"astId": 487,
						"contract": "contracts/Staking.sol:Staking",
						"label": "rewards",
						"offset": 0,
						"slot": "7",
						"type": "t_mapping(t_address,t_uint256)"
					},
					{
						"astId": 491,
						"contract": "contracts/Staking.sol:Staking",
						"label": "userRewardPerTokenPaid",
						"offset": 0,
						"slot": "8",
						"type": "t_mapping(t_address,t_uint256)"
					}
				],
				"types": {
					"t_address": {
						"encoding": "inplace",
						"label": "address",
						"numberOfBytes": "20"
					},
					"t_contract(IERC20)142": {
						"encoding": "inplace",
						"label": "contract IERC20",
						"numberOfBytes": "20"
					},
					"t_mapping(t_address,t_uint256)": {
						"encoding": "mapping",
						"key": "t_address",
						"label": "mapping(address => uint256)",
						"numberOfBytes": "32",
						"value": "t_uint256"
					},
					"t_uint256": {
						"encoding": "inplace",
						"label": "uint256",
						"numberOfBytes": "32"
					}
				}
			},
			"userdoc": {
				"kind": "user",
				"methods": {},
				"version": 1
			}
		}
	}
}